{
  "contractName": "Voting",
  "abi": [
    {
      "anonymous": false,
      "inputs": [
        {
          "indexed": true,
          "internalType": "address",
          "name": "previousOwner",
          "type": "address"
        },
        {
          "indexed": true,
          "internalType": "address",
          "name": "newOwner",
          "type": "address"
        }
      ],
      "name": "OwnershipTransferred",
      "type": "event"
    },
    {
      "anonymous": false,
      "inputs": [
        {
          "indexed": false,
          "internalType": "uint256",
          "name": "proposalId",
          "type": "uint256"
        }
      ],
      "name": "ProposalRegistered",
      "type": "event"
    },
    {
      "anonymous": false,
      "inputs": [
        {
          "indexed": false,
          "internalType": "address",
          "name": "voter",
          "type": "address"
        },
        {
          "indexed": false,
          "internalType": "uint256",
          "name": "proposalId",
          "type": "uint256"
        }
      ],
      "name": "Voted",
      "type": "event"
    },
    {
      "anonymous": false,
      "inputs": [
        {
          "indexed": false,
          "internalType": "address",
          "name": "voterAddress",
          "type": "address"
        }
      ],
      "name": "VoterRegistered",
      "type": "event"
    },
    {
      "anonymous": false,
      "inputs": [
        {
          "indexed": false,
          "internalType": "enum Voting.WorkflowStatus",
          "name": "previousStatus",
          "type": "uint8"
        },
        {
          "indexed": false,
          "internalType": "enum Voting.WorkflowStatus",
          "name": "newStatus",
          "type": "uint8"
        }
      ],
      "name": "WorkflowStatusChange",
      "type": "event"
    },
    {
      "inputs": [],
      "name": "owner",
      "outputs": [
        {
          "internalType": "address",
          "name": "",
          "type": "address"
        }
      ],
      "stateMutability": "view",
      "type": "function",
      "constant": true
    },
    {
      "inputs": [],
      "name": "renounceOwnership",
      "outputs": [],
      "stateMutability": "nonpayable",
      "type": "function"
    },
    {
      "inputs": [
        {
          "internalType": "address",
          "name": "newOwner",
          "type": "address"
        }
      ],
      "name": "transferOwnership",
      "outputs": [],
      "stateMutability": "nonpayable",
      "type": "function"
    },
    {
      "inputs": [],
      "name": "winningProposalID",
      "outputs": [
        {
          "internalType": "uint128",
          "name": "",
          "type": "uint128"
        }
      ],
      "stateMutability": "view",
      "type": "function",
      "constant": true
    },
    {
      "inputs": [],
      "name": "workflowStatus",
      "outputs": [
        {
          "internalType": "enum Voting.WorkflowStatus",
          "name": "",
          "type": "uint8"
        }
      ],
      "stateMutability": "view",
      "type": "function",
      "constant": true
    },
    {
      "inputs": [
        {
          "internalType": "address",
          "name": "_addr",
          "type": "address"
        }
      ],
      "name": "getVoter",
      "outputs": [
        {
          "components": [
            {
              "internalType": "bool",
              "name": "isRegistered",
              "type": "bool"
            },
            {
              "internalType": "bool",
              "name": "hasVoted",
              "type": "bool"
            },
            {
              "internalType": "uint256",
              "name": "votedProposalId",
              "type": "uint256"
            }
          ],
          "internalType": "struct Voting.Voter",
          "name": "",
          "type": "tuple"
        }
      ],
      "stateMutability": "view",
      "type": "function",
      "constant": true
    },
    {
      "inputs": [
        {
          "internalType": "uint256",
          "name": "_id",
          "type": "uint256"
        }
      ],
      "name": "getOneProposal",
      "outputs": [
        {
          "components": [
            {
              "internalType": "string",
              "name": "description",
              "type": "string"
            },
            {
              "internalType": "uint256",
              "name": "voteCount",
              "type": "uint256"
            }
          ],
          "internalType": "struct Voting.Proposal",
          "name": "",
          "type": "tuple"
        }
      ],
      "stateMutability": "view",
      "type": "function",
      "constant": true
    },
    {
      "inputs": [
        {
          "internalType": "address",
          "name": "_addr",
          "type": "address"
        }
      ],
      "name": "addVoter",
      "outputs": [],
      "stateMutability": "nonpayable",
      "type": "function"
    },
    {
      "inputs": [
        {
          "internalType": "string",
          "name": "_desc",
          "type": "string"
        }
      ],
      "name": "addProposal",
      "outputs": [],
      "stateMutability": "nonpayable",
      "type": "function"
    },
    {
      "inputs": [
        {
          "internalType": "uint128",
          "name": "_id",
          "type": "uint128"
        }
      ],
      "name": "setVote",
      "outputs": [],
      "stateMutability": "nonpayable",
      "type": "function"
    },
    {
      "inputs": [],
      "name": "startProposalsRegistering",
      "outputs": [],
      "stateMutability": "nonpayable",
      "type": "function"
    },
    {
      "inputs": [],
      "name": "endProposalsRegistering",
      "outputs": [],
      "stateMutability": "nonpayable",
      "type": "function"
    },
    {
      "inputs": [],
      "name": "startVotingSession",
      "outputs": [],
      "stateMutability": "nonpayable",
      "type": "function"
    },
    {
      "inputs": [],
      "name": "endVotingSession",
      "outputs": [],
      "stateMutability": "nonpayable",
      "type": "function"
    },
    {
      "inputs": [],
      "name": "tallyVotes",
      "outputs": [],
      "stateMutability": "nonpayable",
      "type": "function"
    }
  ],
  "bytecode": "0x608060405234801561001057600080fd5b5061002d61002261003260201b60201c565b61003a60201b60201c565b6100fe565b600033905090565b60008060009054906101000a900473ffffffffffffffffffffffffffffffffffffffff169050816000806101000a81548173ffffffffffffffffffffffffffffffffffffffff021916908373ffffffffffffffffffffffffffffffffffffffff1602179055508173ffffffffffffffffffffffffffffffffffffffff168173ffffffffffffffffffffffffffffffffffffffff167f8be0079c531659141344cd1fd0a4f28419497f9722a3daafe3b4186f6b6457e060405160405180910390a35050565b61240e806200010e6000396000f3fe608060405234801561001057600080fd5b50600436106100f55760003560e01c8063a7bfab1611610097578063d4f50f9811610066578063d4f50f98146101ee578063ee74c6781461021e578063f2fde38b14610228578063f4ab9adf14610244576100f5565b8063a7bfab16146101b2578063bdc01431146101bc578063c7038a4e146101da578063c88af42f146101e4576100f5565b8063715018a6116100d3578063715018a61461013c5780638da5cb5b14610146578063a1edffa214610164578063a2788cce14610182576100f5565b806329e5c5fd146100fa5780632fdae3c514610116578063378a217814610132575b600080fd5b610114600480360381019061010f919061151f565b610260565b005b610130600480360381019061012b9190611692565b6106aa565b005b61013a6108ed565b005b6101446109d3565b005b61014e6109e7565b60405161015b919061171c565b60405180910390f35b61016c610a10565b60405161017991906117ae565b60405180910390f35b61019c600480360381019061019791906117ff565b610a23565b6040516101a99190611900565b60405180910390f35b6101ba610b8a565b005b6101c4610c70565b6040516101d19190611931565b60405180910390f35b6101e2610c92565b005b6101ec610d78565b005b61020860048036038101906102039190611978565b610e5d565b6040516102159190611a02565b60405180910390f35b610226610f85565b005b610242600480360381019061023d9190611978565b61106b565b005b61025e60048036038101906102599190611978565b6110ee565b005b600460003373ffffffffffffffffffffffffffffffffffffffff1673ffffffffffffffffffffffffffffffffffffffff16815260200190815260200160002060000160009054906101000a900460ff166102ef576040517f08c379a00000000000000000000000000000000000000000000000000000000081526004016102e690611a7a565b60405180910390fd5b6003600581111561030357610302611737565b5b600260009054906101000a900460ff16600581111561032557610324611737565b5b14610365576040517f08c379a000000000000000000000000000000000000000000000000000000000815260040161035c90611b0c565b60405180910390fd5b60011515600460003373ffffffffffffffffffffffffffffffffffffffff1673ffffffffffffffffffffffffffffffffffffffff16815260200190815260200160002060000160019054906101000a900460ff161515036103fb576040517f08c379a00000000000000000000000000000000000000000000000000000000081526004016103f290611b78565b60405180910390fd5b600380549050816fffffffffffffffffffffffffffffffff1610610454576040517f08c379a000000000000000000000000000000000000000000000000000000000815260040161044b90611be4565b60405180910390fd5b806fffffffffffffffffffffffffffffffff16600460003373ffffffffffffffffffffffffffffffffffffffff1673ffffffffffffffffffffffffffffffffffffffff168152602001908152602001600020600101819055506001600460003373ffffffffffffffffffffffffffffffffffffffff1673ffffffffffffffffffffffffffffffffffffffff16815260200190815260200160002060000160016101000a81548160ff0219169083151502179055506003816fffffffffffffffffffffffffffffffff168154811061052e5761052d611c04565b5b9060005260206000209060020201600101600081548092919061055090611c62565b9190505550600160109054906101000a90046fffffffffffffffffffffffffffffffff166fffffffffffffffffffffffffffffffff166003826fffffffffffffffffffffffffffffffff16815481106105ac576105ab611c04565b5b906000526020600020906002020160010154111561066e576003816fffffffffffffffffffffffffffffffff16815481106105ea576105e9611c04565b5b906000526020600020906002020160010154600160106101000a8154816fffffffffffffffffffffffffffffffff02191690836fffffffffffffffffffffffffffffffff16021790555080600160006101000a8154816fffffffffffffffffffffffffffffffff02191690836fffffffffffffffffffffffffffffffff1602179055505b7f4d99b957a2bc29a30ebd96a7be8e68fe50a3c701db28a91436490b7d53870ca4338260405161069f929190611ce5565b60405180910390a150565b600460003373ffffffffffffffffffffffffffffffffffffffff1673ffffffffffffffffffffffffffffffffffffffff16815260200190815260200160002060000160009054906101000a900460ff16610739576040517f08c379a000000000000000000000000000000000000000000000000000000000815260040161073090611a7a565b60405180910390fd5b6001600581111561074d5761074c611737565b5b600260009054906101000a900460ff16600581111561076f5761076e611737565b5b146107af576040517f08c379a00000000000000000000000000000000000000000000000000000000081526004016107a690611d5a565b60405180910390fd5b6040516020016107be90611da0565b60405160208183030381529060405280519060200120816040516020016107e59190611df9565b604051602081830303815290604052805190602001200361083b576040517f08c379a000000000000000000000000000000000000000000000000000000000815260040161083290611e8d565b60405180910390fd5b6108436113e1565b818160000181905250600381908060018154018082558091505060019003906000526020600020906002020160009091909190915060008201518160000190805190602001906108949291906113fb565b506020820151816001015550507f92e393e9b54e2f801d3ea4beb0c5e71a21cc34a5d34b77d0fb8a3aa1650dc18f60016003805490506108d49190611ead565b6040516108e19190611ef0565b60405180910390a15050565b6108f5611297565b6004600581111561090957610908611737565b5b600260009054906101000a900460ff16600581111561092b5761092a611737565b5b1461096b576040517f08c379a000000000000000000000000000000000000000000000000000000000815260040161096290611f7d565b60405180910390fd5b6005600260006101000a81548160ff0219169083600581111561099157610990611737565b5b02179055507f0a97a4ee45751e2abf3e4fc8946939630b11b371ea8ae39ccdc3056e98f5cc3f600460056040516109c9929190611f9d565b60405180910390a1565b6109db611297565b6109e56000611315565b565b60008060009054906101000a900473ffffffffffffffffffffffffffffffffffffffff16905090565b600260009054906101000a900460ff1681565b610a2b6113e1565b600460003373ffffffffffffffffffffffffffffffffffffffff1673ffffffffffffffffffffffffffffffffffffffff16815260200190815260200160002060000160009054906101000a900460ff16610aba576040517f08c379a0000000000000000000000000000000000000000000000000000000008152600401610ab190611a7a565b60405180910390fd5b60038281548110610ace57610acd611c04565b5b9060005260206000209060020201604051806040016040529081600082018054610af790611ff5565b80601f0160208091040260200160405190810160405280929190818152602001828054610b2390611ff5565b8015610b705780601f10610b4557610100808354040283529160200191610b70565b820191906000526020600020905b815481529060010190602001808311610b5357829003601f168201915b505050505081526020016001820154815250509050919050565b610b92611297565b60036005811115610ba657610ba5611737565b5b600260009054906101000a900460ff166005811115610bc857610bc7611737565b5b14610c08576040517f08c379a0000000000000000000000000000000000000000000000000000000008152600401610bff90611b0c565b60405180910390fd5b6004600260006101000a81548160ff02191690836005811115610c2e57610c2d611737565b5b02179055507f0a97a4ee45751e2abf3e4fc8946939630b11b371ea8ae39ccdc3056e98f5cc3f60036004604051610c66929190611f9d565b60405180910390a1565b600160009054906101000a90046fffffffffffffffffffffffffffffffff1681565b610c9a611297565b60006005811115610cae57610cad611737565b5b600260009054906101000a900460ff166005811115610cd057610ccf611737565b5b14610d10576040517f08c379a0000000000000000000000000000000000000000000000000000000008152600401610d0790612098565b60405180910390fd5b6001600260006101000a81548160ff02191690836005811115610d3657610d35611737565b5b02179055507f0a97a4ee45751e2abf3e4fc8946939630b11b371ea8ae39ccdc3056e98f5cc3f60006001604051610d6e929190611f9d565b60405180910390a1565b610d80611297565b60016005811115610d9457610d93611737565b5b600260009054906101000a900460ff166005811115610db657610db5611737565b5b14610df6576040517f08c379a0000000000000000000000000000000000000000000000000000000008152600401610ded9061212a565b60405180910390fd5b60028060006101000a81548160ff02191690836005811115610e1b57610e1a611737565b5b02179055507f0a97a4ee45751e2abf3e4fc8946939630b11b371ea8ae39ccdc3056e98f5cc3f60016002604051610e53929190611f9d565b60405180910390a1565b610e65611481565b600460003373ffffffffffffffffffffffffffffffffffffffff1673ffffffffffffffffffffffffffffffffffffffff16815260200190815260200160002060000160009054906101000a900460ff16610ef4576040517f08c379a0000000000000000000000000000000000000000000000000000000008152600401610eeb90611a7a565b60405180910390fd5b600460008373ffffffffffffffffffffffffffffffffffffffff1673ffffffffffffffffffffffffffffffffffffffff1681526020019081526020016000206040518060600160405290816000820160009054906101000a900460ff161515151581526020016000820160019054906101000a900460ff161515151581526020016001820154815250509050919050565b610f8d611297565b60026005811115610fa157610fa0611737565b5b600260009054906101000a900460ff166005811115610fc357610fc2611737565b5b14611003576040517f08c379a0000000000000000000000000000000000000000000000000000000008152600401610ffa906121bc565b60405180910390fd5b6003600260006101000a81548160ff0219169083600581111561102957611028611737565b5b02179055507f0a97a4ee45751e2abf3e4fc8946939630b11b371ea8ae39ccdc3056e98f5cc3f60026003604051611061929190611f9d565b60405180910390a1565b611073611297565b600073ffffffffffffffffffffffffffffffffffffffff168173ffffffffffffffffffffffffffffffffffffffff16036110e2576040517f08c379a00000000000000000000000000000000000000000000000000000000081526004016110d99061224e565b60405180910390fd5b6110eb81611315565b50565b6110f6611297565b6000600581111561110a57611109611737565b5b600260009054906101000a900460ff16600581111561112c5761112b611737565b5b1461116c576040517f08c379a0000000000000000000000000000000000000000000000000000000008152600401611163906122e0565b60405180910390fd5b60011515600460008373ffffffffffffffffffffffffffffffffffffffff1673ffffffffffffffffffffffffffffffffffffffff16815260200190815260200160002060000160009054906101000a900460ff16151503611202576040517f08c379a00000000000000000000000000000000000000000000000000000000081526004016111f99061234c565b60405180910390fd5b6001600460008373ffffffffffffffffffffffffffffffffffffffff1673ffffffffffffffffffffffffffffffffffffffff16815260200190815260200160002060000160006101000a81548160ff0219169083151502179055507fb6be2187d059cc2a55fe29e0e503b566e1e0f8c8780096e185429350acffd3dd8160405161128c919061171c565b60405180910390a150565b61129f6113d9565b73ffffffffffffffffffffffffffffffffffffffff166112bd6109e7565b73ffffffffffffffffffffffffffffffffffffffff1614611313576040517f08c379a000000000000000000000000000000000000000000000000000000000815260040161130a906123b8565b60405180910390fd5b565b60008060009054906101000a900473ffffffffffffffffffffffffffffffffffffffff169050816000806101000a81548173ffffffffffffffffffffffffffffffffffffffff021916908373ffffffffffffffffffffffffffffffffffffffff1602179055508173ffffffffffffffffffffffffffffffffffffffff168173ffffffffffffffffffffffffffffffffffffffff167f8be0079c531659141344cd1fd0a4f28419497f9722a3daafe3b4186f6b6457e060405160405180910390a35050565b600033905090565b604051806040016040528060608152602001600081525090565b82805461140790611ff5565b90600052602060002090601f0160209004810192826114295760008555611470565b82601f1061144257805160ff1916838001178555611470565b82800160010185558215611470579182015b8281111561146f578251825591602001919060010190611454565b5b50905061147d91906114a6565b5090565b6040518060600160405280600015158152602001600015158152602001600081525090565b5b808211156114bf5760008160009055506001016114a7565b5090565b6000604051905090565b600080fd5b600080fd5b60006fffffffffffffffffffffffffffffffff82169050919050565b6114fc816114d7565b811461150757600080fd5b50565b600081359050611519816114f3565b92915050565b600060208284031215611535576115346114cd565b5b60006115438482850161150a565b91505092915050565b600080fd5b600080fd5b6000601f19601f8301169050919050565b7f4e487b7100000000000000000000000000000000000000000000000000000000600052604160045260246000fd5b61159f82611556565b810181811067ffffffffffffffff821117156115be576115bd611567565b5b80604052505050565b60006115d16114c3565b90506115dd8282611596565b919050565b600067ffffffffffffffff8211156115fd576115fc611567565b5b61160682611556565b9050602081019050919050565b82818337600083830152505050565b6000611635611630846115e2565b6115c7565b90508281526020810184848401111561165157611650611551565b5b61165c848285611613565b509392505050565b600082601f8301126116795761167861154c565b5b8135611689848260208601611622565b91505092915050565b6000602082840312156116a8576116a76114cd565b5b600082013567ffffffffffffffff8111156116c6576116c56114d2565b5b6116d284828501611664565b91505092915050565b600073ffffffffffffffffffffffffffffffffffffffff82169050919050565b6000611706826116db565b9050919050565b611716816116fb565b82525050565b6000602082019050611731600083018461170d565b92915050565b7f4e487b7100000000000000000000000000000000000000000000000000000000600052602160045260246000fd5b6006811061177757611776611737565b5b50565b600081905061178882611766565b919050565b60006117988261177a565b9050919050565b6117a88161178d565b82525050565b60006020820190506117c3600083018461179f565b92915050565b6000819050919050565b6117dc816117c9565b81146117e757600080fd5b50565b6000813590506117f9816117d3565b92915050565b600060208284031215611815576118146114cd565b5b6000611823848285016117ea565b91505092915050565b600081519050919050565b600082825260208201905092915050565b60005b8381101561186657808201518184015260208101905061184b565b83811115611875576000848401525b50505050565b60006118868261182c565b6118908185611837565b93506118a0818560208601611848565b6118a981611556565b840191505092915050565b6118bd816117c9565b82525050565b600060408301600083015184820360008601526118e0828261187b565b91505060208301516118f560208601826118b4565b508091505092915050565b6000602082019050818103600083015261191a81846118c3565b905092915050565b61192b816114d7565b82525050565b60006020820190506119466000830184611922565b92915050565b611955816116fb565b811461196057600080fd5b50565b6000813590506119728161194c565b92915050565b60006020828403121561198e5761198d6114cd565b5b600061199c84828501611963565b91505092915050565b60008115159050919050565b6119ba816119a5565b82525050565b6060820160008201516119d660008501826119b1565b5060208201516119e960208501826119b1565b5060408201516119fc60408501826118b4565b50505050565b6000606082019050611a1760008301846119c0565b92915050565b600082825260208201905092915050565b7f596f75277265206e6f74206120766f7465720000000000000000000000000000600082015250565b6000611a64601283611a1d565b9150611a6f82611a2e565b602082019050919050565b60006020820190508181036000830152611a9381611a57565b9050919050565b7f566f74696e672073657373696f6e20686176656e74207374617274656420796560008201527f7400000000000000000000000000000000000000000000000000000000000000602082015250565b6000611af6602183611a1d565b9150611b0182611a9a565b604082019050919050565b60006020820190508181036000830152611b2581611ae9565b9050919050565b7f596f75206861766520616c726561647920766f74656400000000000000000000600082015250565b6000611b62601683611a1d565b9150611b6d82611b2c565b602082019050919050565b60006020820190508181036000830152611b9181611b55565b9050919050565b7f50726f706f73616c206e6f7420666f756e640000000000000000000000000000600082015250565b6000611bce601283611a1d565b9150611bd982611b98565b602082019050919050565b60006020820190508181036000830152611bfd81611bc1565b9050919050565b7f4e487b7100000000000000000000000000000000000000000000000000000000600052603260045260246000fd5b7f4e487b7100000000000000000000000000000000000000000000000000000000600052601160045260246000fd5b6000611c6d826117c9565b91507fffffffffffffffffffffffffffffffffffffffffffffffffffffffffffffffff8203611c9f57611c9e611c33565b5b600182019050919050565b6000819050919050565b6000611ccf611cca611cc5846114d7565b611caa565b6117c9565b9050919050565b611cdf81611cb4565b82525050565b6000604082019050611cfa600083018561170d565b611d076020830184611cd6565b9392505050565b7f50726f706f73616c7320617265206e6f7420616c6c6f77656420796574000000600082015250565b6000611d44601d83611a1d565b9150611d4f82611d0e565b602082019050919050565b60006020820190508181036000830152611d7381611d37565b9050919050565b50565b6000611d8a600083611a1d565b9150611d9582611d7a565b600082019050919050565b60006020820190508181036000830152611db981611d7d565b9050919050565b6000611dcb8261182c565b611dd58185611a1d565b9350611de5818560208601611848565b611dee81611556565b840191505092915050565b60006020820190508181036000830152611e138184611dc0565b905092915050565b7f566f7573206e6520706f7576657a20706173206e65207269656e2070726f706f60008201527f7365720000000000000000000000000000000000000000000000000000000000602082015250565b6000611e77602383611a1d565b9150611e8282611e1b565b604082019050919050565b60006020820190508181036000830152611ea681611e6a565b9050919050565b6000611eb8826117c9565b9150611ec3836117c9565b925082821015611ed657611ed5611c33565b5b828203905092915050565b611eea816117c9565b82525050565b6000602082019050611f056000830184611ee1565b92915050565b7f43757272656e7420737461747573206973206e6f7420766f74696e672073657360008201527f73696f6e20656e64656400000000000000000000000000000000000000000000602082015250565b6000611f67602a83611a1d565b9150611f7282611f0b565b604082019050919050565b60006020820190508181036000830152611f9681611f5a565b9050919050565b6000604082019050611fb2600083018561179f565b611fbf602083018461179f565b9392505050565b7f4e487b7100000000000000000000000000000000000000000000000000000000600052602260045260246000fd5b6000600282049050600182168061200d57607f821691505b6020821081036120205761201f611fc6565b5b50919050565b7f5265676973746572696e672070726f706f73616c732063616e7420626520737460008201527f6172746564206e6f770000000000000000000000000000000000000000000000602082015250565b6000612082602983611a1d565b915061208d82612026565b604082019050919050565b600060208201905081810360008301526120b181612075565b9050919050565b7f5265676973746572696e672070726f706f73616c7320686176656e742073746160008201527f7274656420796574000000000000000000000000000000000000000000000000602082015250565b6000612114602883611a1d565b915061211f826120b8565b604082019050919050565b6000602082019050818103600083015261214381612107565b9050919050565b7f5265676973746572696e672070726f706f73616c73207068617365206973206e60008201527f6f742066696e6973686564000000000000000000000000000000000000000000602082015250565b60006121a6602b83611a1d565b91506121b18261214a565b604082019050919050565b600060208201905081810360008301526121d581612199565b9050919050565b7f4f776e61626c653a206e6577206f776e657220697320746865207a65726f206160008201527f6464726573730000000000000000000000000000000000000000000000000000602082015250565b6000612238602683611a1d565b9150612243826121dc565b604082019050919050565b600060208201905081810360008301526122678161222b565b9050919050565b7f566f7465727320726567697374726174696f6e206973206e6f74206f70656e2060008201527f7965740000000000000000000000000000000000000000000000000000000000602082015250565b60006122ca602383611a1d565b91506122d58261226e565b604082019050919050565b600060208201905081810360008301526122f9816122bd565b9050919050565b7f416c726561647920726567697374657265640000000000000000000000000000600082015250565b6000612336601283611a1d565b915061234182612300565b602082019050919050565b6000602082019050818103600083015261236581612329565b9050919050565b7f4f776e61626c653a2063616c6c6572206973206e6f7420746865206f776e6572600082015250565b60006123a2602083611a1d565b91506123ad8261236c565b602082019050919050565b600060208201905081810360008301526123d181612395565b905091905056fea2646970667358221220056ad0af0a89f83645f3a898d871b6efb1917c114d8f0d13520b65d28449e55764736f6c634300080d0033",
  "immutableReferences": {},
  "source": "// SPDX-License-Identifier: MIT\n\npragma solidity 0.8.13;\nimport \"@openzeppelin/contracts/access/Ownable.sol\";\n\ncontract Voting is Ownable {\n\n    uint128 public winningProposalID;\n    uint128 highestVoteCount;\n\n    struct Voter {\n        bool isRegistered;\n        bool hasVoted;\n        uint votedProposalId;\n    }\n\n    struct Proposal {\n        string description;\n        uint voteCount;\n    }\n\n    enum  WorkflowStatus {\n        RegisteringVoters,\n        ProposalsRegistrationStarted,\n        ProposalsRegistrationEnded,\n        VotingSessionStarted,\n        VotingSessionEnded,\n        VotesTallied\n    }\n\n    WorkflowStatus public workflowStatus;\n    Proposal[] proposalsArray;\n    mapping (address => Voter) voters;\n\n    event VoterRegistered(address voterAddress);\n    event WorkflowStatusChange(WorkflowStatus previousStatus, WorkflowStatus newStatus);\n    event ProposalRegistered(uint proposalId);\n    event Voted (address voter, uint proposalId);\n\n    modifier onlyVoters() {\n        require(voters[msg.sender].isRegistered, \"You're not a voter\");\n        _;\n    }\n\n    // ::::::::::::: GETTERS ::::::::::::: //\n\n    function getVoter(address _addr) external onlyVoters view returns (Voter memory) {\n        return voters[_addr];\n    }\n\n    function getOneProposal(uint _id) external onlyVoters view returns (Proposal memory) {\n        return proposalsArray[_id];\n    }\n\n    // ::::::::::::: REGISTRATION ::::::::::::: //\n\n    function addVoter(address _addr) external onlyOwner {\n        require(workflowStatus == WorkflowStatus.RegisteringVoters, 'Voters registration is not open yet');\n        require(voters[_addr].isRegistered != true, 'Already registered');\n\n        voters[_addr].isRegistered = true;\n        emit VoterRegistered(_addr);\n    }\n\n    // ::::::::::::: PROPOSAL ::::::::::::: //\n\n    function addProposal(string memory _desc) external onlyVoters {\n        require(workflowStatus == WorkflowStatus.ProposalsRegistrationStarted, 'Proposals are not allowed yet');\n        require(keccak256(abi.encode(_desc)) != keccak256(abi.encode(\"\")), 'Vous ne pouvez pas ne rien proposer'); // facultatif\n        // voir que desc est different des autres\n\n        Proposal memory proposal;\n        proposal.description = _desc;\n        proposalsArray.push(proposal);\n        emit ProposalRegistered(proposalsArray.length-1);\n    }\n\n    // ::::::::::::: VOTE ::::::::::::: //\n\n    function setVote(uint128 _id) external onlyVoters {\n        require(workflowStatus == WorkflowStatus.VotingSessionStarted, 'Voting session havent started yet');\n        require(voters[msg.sender].hasVoted != true, 'You have already voted');\n        require(_id < proposalsArray.length, 'Proposal not found'); // pas oblig, et pas besoin du >0 car uint\n\n        voters[msg.sender].votedProposalId = _id;\n        voters[msg.sender].hasVoted = true;\n        proposalsArray[_id].voteCount++;\n\n        // We set a temporary winning proposal id to prevent making a loop in tally vote and fix security breach\n        if (proposalsArray[_id].voteCount > highestVoteCount) {\n            highestVoteCount = uint128(proposalsArray[_id].voteCount);\n            winningProposalID = _id;\n        }\n\n        emit Voted(msg.sender, _id);\n    }\n\n    // ::::::::::::: STATE ::::::::::::: //\n\n    function startProposalsRegistering() external onlyOwner {\n        require(workflowStatus == WorkflowStatus.RegisteringVoters, 'Registering proposals cant be started now');\n        workflowStatus = WorkflowStatus.ProposalsRegistrationStarted;\n        emit WorkflowStatusChange(WorkflowStatus.RegisteringVoters, WorkflowStatus.ProposalsRegistrationStarted);\n    }\n\n    function endProposalsRegistering() external onlyOwner {\n        require(workflowStatus == WorkflowStatus.ProposalsRegistrationStarted, 'Registering proposals havent started yet');\n        workflowStatus = WorkflowStatus.ProposalsRegistrationEnded;\n        emit WorkflowStatusChange(WorkflowStatus.ProposalsRegistrationStarted, WorkflowStatus.ProposalsRegistrationEnded);\n    }\n\n    function startVotingSession() external onlyOwner {\n        require(workflowStatus == WorkflowStatus.ProposalsRegistrationEnded, 'Registering proposals phase is not finished');\n        workflowStatus = WorkflowStatus.VotingSessionStarted;\n        emit WorkflowStatusChange(WorkflowStatus.ProposalsRegistrationEnded, WorkflowStatus.VotingSessionStarted);\n    }\n\n    function endVotingSession() external onlyOwner {\n        require(workflowStatus == WorkflowStatus.VotingSessionStarted, 'Voting session havent started yet');\n        workflowStatus = WorkflowStatus.VotingSessionEnded;\n        emit WorkflowStatusChange(WorkflowStatus.VotingSessionStarted, WorkflowStatus.VotingSessionEnded);\n    }\n\n    function tallyVotes() external onlyOwner {\n        require(workflowStatus == WorkflowStatus.VotingSessionEnded, \"Current status is not voting session ended\");\n        // Winning proposal id is already determined by setVote function\n        workflowStatus = WorkflowStatus.VotesTallied;\n        emit WorkflowStatusChange(WorkflowStatus.VotingSessionEnded, WorkflowStatus.VotesTallied);\n    }\n}",
  "sourcePath": "/home/jack/Dev/PROJEX/3_Alyra_Projet_dApp/truffle/contracts/Voting.sol",
  "compiler": {
    "name": "solc",
    "version": "0.8.13+commit.abaa5c0e.Emscripten.clang"
  },
  "schemaVersion": "3.4.7",
  "updatedAt": "2022-07-07T09:15:07.508Z",
  "networkType": "ethereum",
  "devdoc": {
    "kind": "dev",
    "methods": {
      "owner()": {
        "details": "Returns the address of the current owner."
      },
      "renounceOwnership()": {
        "details": "Leaves the contract without owner. It will not be possible to call `onlyOwner` functions anymore. Can only be called by the current owner. NOTE: Renouncing ownership will leave the contract without an owner, thereby removing any functionality that is only available to the owner."
      },
      "transferOwnership(address)": {
        "details": "Transfers ownership of the contract to a new account (`newOwner`). Can only be called by the current owner."
      }
    },
    "version": 1
  },
  "userdoc": {
    "kind": "user",
    "methods": {},
    "version": 1
  }
}