{
  "contractName": "Voting",
  "abi": [
    {
      "anonymous": false,
      "inputs": [
        {
          "indexed": false,
          "internalType": "address",
          "name": "user",
          "type": "address"
        }
      ],
      "name": "LogBadCall",
      "type": "event"
    },
    {
      "anonymous": false,
      "inputs": [
        {
          "indexed": false,
          "internalType": "address",
          "name": "user",
          "type": "address"
        },
        {
          "indexed": false,
          "internalType": "uint256",
          "name": "quantity",
          "type": "uint256"
        }
      ],
      "name": "LogDepot",
      "type": "event"
    },
    {
      "anonymous": false,
      "inputs": [
        {
          "indexed": true,
          "internalType": "address",
          "name": "previousOwner",
          "type": "address"
        },
        {
          "indexed": true,
          "internalType": "address",
          "name": "newOwner",
          "type": "address"
        }
      ],
      "name": "OwnershipTransferred",
      "type": "event"
    },
    {
      "anonymous": false,
      "inputs": [
        {
          "indexed": false,
          "internalType": "uint256",
          "name": "proposalId",
          "type": "uint256"
        }
      ],
      "name": "ProposalRegistered",
      "type": "event"
    },
    {
      "anonymous": false,
      "inputs": [
        {
          "indexed": false,
          "internalType": "address",
          "name": "voter",
          "type": "address"
        },
        {
          "indexed": false,
          "internalType": "uint256",
          "name": "proposalId",
          "type": "uint256"
        }
      ],
      "name": "Voted",
      "type": "event"
    },
    {
      "anonymous": false,
      "inputs": [
        {
          "indexed": false,
          "internalType": "address",
          "name": "voterAddress",
          "type": "address"
        }
      ],
      "name": "VoterRegistered",
      "type": "event"
    },
    {
      "anonymous": false,
      "inputs": [
        {
          "indexed": false,
          "internalType": "enum Voting.WorkflowStatus",
          "name": "previousStatus",
          "type": "uint8"
        },
        {
          "indexed": false,
          "internalType": "enum Voting.WorkflowStatus",
          "name": "newStatus",
          "type": "uint8"
        }
      ],
      "name": "WorkflowStatusChange",
      "type": "event"
    },
    {
      "stateMutability": "nonpayable",
      "type": "fallback"
    },
    {
      "inputs": [],
      "name": "owner",
      "outputs": [
        {
          "internalType": "address",
          "name": "",
          "type": "address"
        }
      ],
      "stateMutability": "view",
      "type": "function",
      "constant": true
    },
    {
      "inputs": [],
      "name": "renounceOwnership",
      "outputs": [],
      "stateMutability": "nonpayable",
      "type": "function"
    },
    {
      "inputs": [
        {
          "internalType": "address",
          "name": "newOwner",
          "type": "address"
        }
      ],
      "name": "transferOwnership",
      "outputs": [],
      "stateMutability": "nonpayable",
      "type": "function"
    },
    {
      "inputs": [],
      "name": "winningProposalID",
      "outputs": [
        {
          "internalType": "uint128",
          "name": "",
          "type": "uint128"
        }
      ],
      "stateMutability": "view",
      "type": "function",
      "constant": true
    },
    {
      "inputs": [],
      "name": "workflowStatus",
      "outputs": [
        {
          "internalType": "enum Voting.WorkflowStatus",
          "name": "",
          "type": "uint8"
        }
      ],
      "stateMutability": "view",
      "type": "function",
      "constant": true
    },
    {
      "stateMutability": "payable",
      "type": "receive",
      "payable": true
    },
    {
      "inputs": [
        {
          "internalType": "address",
          "name": "_addr",
          "type": "address"
        }
      ],
      "name": "getVoter",
      "outputs": [
        {
          "components": [
            {
              "internalType": "bool",
              "name": "isRegistered",
              "type": "bool"
            },
            {
              "internalType": "bool",
              "name": "hasVoted",
              "type": "bool"
            },
            {
              "internalType": "uint256",
              "name": "votedProposalId",
              "type": "uint256"
            }
          ],
          "internalType": "struct Voting.Voter",
          "name": "",
          "type": "tuple"
        }
      ],
      "stateMutability": "view",
      "type": "function",
      "constant": true
    },
    {
      "inputs": [
        {
          "internalType": "uint256",
          "name": "_id",
          "type": "uint256"
        }
      ],
      "name": "getOneProposal",
      "outputs": [
        {
          "components": [
            {
              "internalType": "string",
              "name": "description",
              "type": "string"
            },
            {
              "internalType": "uint256",
              "name": "voteCount",
              "type": "uint256"
            }
          ],
          "internalType": "struct Voting.Proposal",
          "name": "",
          "type": "tuple"
        }
      ],
      "stateMutability": "view",
      "type": "function",
      "constant": true
    },
    {
      "inputs": [
        {
          "internalType": "uint256",
          "name": "amount",
          "type": "uint256"
        }
      ],
      "name": "withdraw",
      "outputs": [],
      "stateMutability": "nonpayable",
      "type": "function"
    },
    {
      "inputs": [
        {
          "internalType": "address",
          "name": "_addr",
          "type": "address"
        }
      ],
      "name": "addVoter",
      "outputs": [],
      "stateMutability": "nonpayable",
      "type": "function"
    },
    {
      "inputs": [
        {
          "internalType": "string",
          "name": "_desc",
          "type": "string"
        }
      ],
      "name": "addProposal",
      "outputs": [],
      "stateMutability": "nonpayable",
      "type": "function"
    },
    {
      "inputs": [
        {
          "internalType": "uint128",
          "name": "_id",
          "type": "uint128"
        }
      ],
      "name": "setVote",
      "outputs": [],
      "stateMutability": "nonpayable",
      "type": "function"
    },
    {
      "inputs": [],
      "name": "startProposalsRegistering",
      "outputs": [],
      "stateMutability": "nonpayable",
      "type": "function"
    },
    {
      "inputs": [],
      "name": "endProposalsRegistering",
      "outputs": [],
      "stateMutability": "nonpayable",
      "type": "function"
    },
    {
      "inputs": [],
      "name": "startVotingSession",
      "outputs": [],
      "stateMutability": "nonpayable",
      "type": "function"
    },
    {
      "inputs": [],
      "name": "endVotingSession",
      "outputs": [],
      "stateMutability": "nonpayable",
      "type": "function"
    },
    {
      "inputs": [],
      "name": "tallyVotes",
      "outputs": [],
      "stateMutability": "nonpayable",
      "type": "function"
    }
  ],
  "bytecode": "0x60806040523480156200001157600080fd5b5062000032620000266200003860201b60201c565b6200004060201b60201c565b62000104565b600033905090565b60008060009054906101000a900473ffffffffffffffffffffffffffffffffffffffff169050816000806101000a81548173ffffffffffffffffffffffffffffffffffffffff021916908373ffffffffffffffffffffffffffffffffffffffff1602179055508173ffffffffffffffffffffffffffffffffffffffff168173ffffffffffffffffffffffffffffffffffffffff167f8be0079c531659141344cd1fd0a4f28419497f9722a3daafe3b4186f6b6457e060405160405180910390a35050565b61265d80620001146000396000f3fe6080604052600436106100f75760003560e01c8063a7bfab161161008a578063d4f50f9811610059578063d4f50f9814610329578063ee74c67814610366578063f2fde38b1461037d578063f4ab9adf146103a657610137565b8063a7bfab16146102b9578063bdc01431146102d0578063c7038a4e146102fb578063c88af42f1461031257610137565b8063715018a6116100c6578063715018a61461020f5780638da5cb5b14610226578063a1edffa214610251578063a2788cce1461027c57610137565b806329e5c5fd1461017d5780632e1a7d4d146101a65780632fdae3c5146101cf578063378a2178146101f857610137565b36610137577f1d76c7e5736b9b335988489baea5b96ec803f8f1194842fe5ce3a6ec85e79b56333460405161012d929190611700565b60405180910390a1005b34801561014357600080fd5b507fcc97ff3d49208ba08dc7ada5cf9e88e59e047be7d363118838f7af1233c49c43336040516101739190611729565b60405180910390a1005b34801561018957600080fd5b506101a4600480360381019061019f91906117a0565b6103cf565b005b3480156101b257600080fd5b506101cd60048036038101906101c891906117f9565b610819565b005b3480156101db57600080fd5b506101f660048036038101906101f1919061196c565b61088d565b005b34801561020457600080fd5b5061020d610ad0565b005b34801561021b57600080fd5b50610224610bb6565b005b34801561023257600080fd5b5061023b610bca565b6040516102489190611729565b60405180910390f35b34801561025d57600080fd5b50610266610bf3565b6040516102739190611a2c565b60405180910390f35b34801561028857600080fd5b506102a3600480360381019061029e91906117f9565b610c06565b6040516102b09190611b1b565b60405180910390f35b3480156102c557600080fd5b506102ce610d6d565b005b3480156102dc57600080fd5b506102e5610e53565b6040516102f29190611b4c565b60405180910390f35b34801561030757600080fd5b50610310610e75565b005b34801561031e57600080fd5b50610327610f5b565b005b34801561033557600080fd5b50610350600480360381019061034b9190611b93565b611040565b60405161035d9190611c1d565b60405180910390f35b34801561037257600080fd5b5061037b611168565b005b34801561038957600080fd5b506103a4600480360381019061039f9190611b93565b61124e565b005b3480156103b257600080fd5b506103cd60048036038101906103c89190611b93565b6112d1565b005b600460003373ffffffffffffffffffffffffffffffffffffffff1673ffffffffffffffffffffffffffffffffffffffff16815260200190815260200160002060000160009054906101000a900460ff1661045e576040517f08c379a000000000000000000000000000000000000000000000000000000000815260040161045590611c95565b60405180910390fd5b60036005811115610472576104716119b5565b5b600260009054906101000a900460ff166005811115610494576104936119b5565b5b146104d4576040517f08c379a00000000000000000000000000000000000000000000000000000000081526004016104cb90611d27565b60405180910390fd5b60011515600460003373ffffffffffffffffffffffffffffffffffffffff1673ffffffffffffffffffffffffffffffffffffffff16815260200190815260200160002060000160019054906101000a900460ff1615150361056a576040517f08c379a000000000000000000000000000000000000000000000000000000000815260040161056190611d93565b60405180910390fd5b600380549050816fffffffffffffffffffffffffffffffff16106105c3576040517f08c379a00000000000000000000000000000000000000000000000000000000081526004016105ba90611dff565b60405180910390fd5b806fffffffffffffffffffffffffffffffff16600460003373ffffffffffffffffffffffffffffffffffffffff1673ffffffffffffffffffffffffffffffffffffffff168152602001908152602001600020600101819055506001600460003373ffffffffffffffffffffffffffffffffffffffff1673ffffffffffffffffffffffffffffffffffffffff16815260200190815260200160002060000160016101000a81548160ff0219169083151502179055506003816fffffffffffffffffffffffffffffffff168154811061069d5761069c611e1f565b5b906000526020600020906002020160010160008154809291906106bf90611e7d565b9190505550600160109054906101000a90046fffffffffffffffffffffffffffffffff166fffffffffffffffffffffffffffffffff166003826fffffffffffffffffffffffffffffffff168154811061071b5761071a611e1f565b5b90600052602060002090600202016001015411156107dd576003816fffffffffffffffffffffffffffffffff168154811061075957610758611e1f565b5b906000526020600020906002020160010154600160106101000a8154816fffffffffffffffffffffffffffffffff02191690836fffffffffffffffffffffffffffffffff16021790555080600160006101000a8154816fffffffffffffffffffffffffffffffff02191690836fffffffffffffffffffffffffffffffff1602179055505b7f4d99b957a2bc29a30ebd96a7be8e68fe50a3c701db28a91436490b7d53870ca4338260405161080e929190611f00565b60405180910390a150565b61082161147a565b3373ffffffffffffffffffffffffffffffffffffffff168160405161084590611f5a565b60006040518083038185875af1925050503d8060008114610882576040519150601f19603f3d011682016040523d82523d6000602084013e610887565b606091505b50505050565b600460003373ffffffffffffffffffffffffffffffffffffffff1673ffffffffffffffffffffffffffffffffffffffff16815260200190815260200160002060000160009054906101000a900460ff1661091c576040517f08c379a000000000000000000000000000000000000000000000000000000000815260040161091390611c95565b60405180910390fd5b600160058111156109305761092f6119b5565b5b600260009054906101000a900460ff166005811115610952576109516119b5565b5b14610992576040517f08c379a000000000000000000000000000000000000000000000000000000000815260040161098990611fbb565b60405180910390fd5b6040516020016109a190611ffe565b60405160208183030381529060405280519060200120816040516020016109c89190612057565b6040516020818303038152906040528051906020012003610a1e576040517f08c379a0000000000000000000000000000000000000000000000000000000008152600401610a15906120eb565b60405180910390fd5b610a266115c4565b81816000018190525060038190806001815401808255809150506001900390600052602060002090600202016000909190919091506000820151816000019080519060200190610a779291906115de565b506020820151816001015550507f92e393e9b54e2f801d3ea4beb0c5e71a21cc34a5d34b77d0fb8a3aa1650dc18f6001600380549050610ab7919061210b565b604051610ac4919061213f565b60405180910390a15050565b610ad861147a565b60046005811115610aec57610aeb6119b5565b5b600260009054906101000a900460ff166005811115610b0e57610b0d6119b5565b5b14610b4e576040517f08c379a0000000000000000000000000000000000000000000000000000000008152600401610b45906121cc565b60405180910390fd5b6005600260006101000a81548160ff02191690836005811115610b7457610b736119b5565b5b02179055507f0a97a4ee45751e2abf3e4fc8946939630b11b371ea8ae39ccdc3056e98f5cc3f60046005604051610bac9291906121ec565b60405180910390a1565b610bbe61147a565b610bc860006114f8565b565b60008060009054906101000a900473ffffffffffffffffffffffffffffffffffffffff16905090565b600260009054906101000a900460ff1681565b610c0e6115c4565b600460003373ffffffffffffffffffffffffffffffffffffffff1673ffffffffffffffffffffffffffffffffffffffff16815260200190815260200160002060000160009054906101000a900460ff16610c9d576040517f08c379a0000000000000000000000000000000000000000000000000000000008152600401610c9490611c95565b60405180910390fd5b60038281548110610cb157610cb0611e1f565b5b9060005260206000209060020201604051806040016040529081600082018054610cda90612244565b80601f0160208091040260200160405190810160405280929190818152602001828054610d0690612244565b8015610d535780601f10610d2857610100808354040283529160200191610d53565b820191906000526020600020905b815481529060010190602001808311610d3657829003601f168201915b505050505081526020016001820154815250509050919050565b610d7561147a565b60036005811115610d8957610d886119b5565b5b600260009054906101000a900460ff166005811115610dab57610daa6119b5565b5b14610deb576040517f08c379a0000000000000000000000000000000000000000000000000000000008152600401610de290611d27565b60405180910390fd5b6004600260006101000a81548160ff02191690836005811115610e1157610e106119b5565b5b02179055507f0a97a4ee45751e2abf3e4fc8946939630b11b371ea8ae39ccdc3056e98f5cc3f60036004604051610e499291906121ec565b60405180910390a1565b600160009054906101000a90046fffffffffffffffffffffffffffffffff1681565b610e7d61147a565b60006005811115610e9157610e906119b5565b5b600260009054906101000a900460ff166005811115610eb357610eb26119b5565b5b14610ef3576040517f08c379a0000000000000000000000000000000000000000000000000000000008152600401610eea906122e7565b60405180910390fd5b6001600260006101000a81548160ff02191690836005811115610f1957610f186119b5565b5b02179055507f0a97a4ee45751e2abf3e4fc8946939630b11b371ea8ae39ccdc3056e98f5cc3f60006001604051610f519291906121ec565b60405180910390a1565b610f6361147a565b60016005811115610f7757610f766119b5565b5b600260009054906101000a900460ff166005811115610f9957610f986119b5565b5b14610fd9576040517f08c379a0000000000000000000000000000000000000000000000000000000008152600401610fd090612379565b60405180910390fd5b60028060006101000a81548160ff02191690836005811115610ffe57610ffd6119b5565b5b02179055507f0a97a4ee45751e2abf3e4fc8946939630b11b371ea8ae39ccdc3056e98f5cc3f600160026040516110369291906121ec565b60405180910390a1565b611048611664565b600460003373ffffffffffffffffffffffffffffffffffffffff1673ffffffffffffffffffffffffffffffffffffffff16815260200190815260200160002060000160009054906101000a900460ff166110d7576040517f08c379a00000000000000000000000000000000000000000000000000000000081526004016110ce90611c95565b60405180910390fd5b600460008373ffffffffffffffffffffffffffffffffffffffff1673ffffffffffffffffffffffffffffffffffffffff1681526020019081526020016000206040518060600160405290816000820160009054906101000a900460ff161515151581526020016000820160019054906101000a900460ff161515151581526020016001820154815250509050919050565b61117061147a565b60026005811115611184576111836119b5565b5b600260009054906101000a900460ff1660058111156111a6576111a56119b5565b5b146111e6576040517f08c379a00000000000000000000000000000000000000000000000000000000081526004016111dd9061240b565b60405180910390fd5b6003600260006101000a81548160ff0219169083600581111561120c5761120b6119b5565b5b02179055507f0a97a4ee45751e2abf3e4fc8946939630b11b371ea8ae39ccdc3056e98f5cc3f600260036040516112449291906121ec565b60405180910390a1565b61125661147a565b600073ffffffffffffffffffffffffffffffffffffffff168173ffffffffffffffffffffffffffffffffffffffff16036112c5576040517f08c379a00000000000000000000000000000000000000000000000000000000081526004016112bc9061249d565b60405180910390fd5b6112ce816114f8565b50565b6112d961147a565b600060058111156112ed576112ec6119b5565b5b600260009054906101000a900460ff16600581111561130f5761130e6119b5565b5b1461134f576040517f08c379a00000000000000000000000000000000000000000000000000000000081526004016113469061252f565b60405180910390fd5b60011515600460008373ffffffffffffffffffffffffffffffffffffffff1673ffffffffffffffffffffffffffffffffffffffff16815260200190815260200160002060000160009054906101000a900460ff161515036113e5576040517f08c379a00000000000000000000000000000000000000000000000000000000081526004016113dc9061259b565b60405180910390fd5b6001600460008373ffffffffffffffffffffffffffffffffffffffff1673ffffffffffffffffffffffffffffffffffffffff16815260200190815260200160002060000160006101000a81548160ff0219169083151502179055507fb6be2187d059cc2a55fe29e0e503b566e1e0f8c8780096e185429350acffd3dd8160405161146f9190611729565b60405180910390a150565b6114826115bc565b73ffffffffffffffffffffffffffffffffffffffff166114a0610bca565b73ffffffffffffffffffffffffffffffffffffffff16146114f6576040517f08c379a00000000000000000000000000000000000000000000000000000000081526004016114ed90612607565b60405180910390fd5b565b60008060009054906101000a900473ffffffffffffffffffffffffffffffffffffffff169050816000806101000a81548173ffffffffffffffffffffffffffffffffffffffff021916908373ffffffffffffffffffffffffffffffffffffffff1602179055508173ffffffffffffffffffffffffffffffffffffffff168173ffffffffffffffffffffffffffffffffffffffff167f8be0079c531659141344cd1fd0a4f28419497f9722a3daafe3b4186f6b6457e060405160405180910390a35050565b600033905090565b604051806040016040528060608152602001600081525090565b8280546115ea90612244565b90600052602060002090601f01602090048101928261160c5760008555611653565b82601f1061162557805160ff1916838001178555611653565b82800160010185558215611653579182015b82811115611652578251825591602001919060010190611637565b5b5090506116609190611689565b5090565b6040518060600160405280600015158152602001600015158152602001600081525090565b5b808211156116a257600081600090555060010161168a565b5090565b600073ffffffffffffffffffffffffffffffffffffffff82169050919050565b60006116d1826116a6565b9050919050565b6116e1816116c6565b82525050565b6000819050919050565b6116fa816116e7565b82525050565b600060408201905061171560008301856116d8565b61172260208301846116f1565b9392505050565b600060208201905061173e60008301846116d8565b92915050565b6000604051905090565b600080fd5b600080fd5b60006fffffffffffffffffffffffffffffffff82169050919050565b61177d81611758565b811461178857600080fd5b50565b60008135905061179a81611774565b92915050565b6000602082840312156117b6576117b561174e565b5b60006117c48482850161178b565b91505092915050565b6117d6816116e7565b81146117e157600080fd5b50565b6000813590506117f3816117cd565b92915050565b60006020828403121561180f5761180e61174e565b5b600061181d848285016117e4565b91505092915050565b600080fd5b600080fd5b6000601f19601f8301169050919050565b7f4e487b7100000000000000000000000000000000000000000000000000000000600052604160045260246000fd5b61187982611830565b810181811067ffffffffffffffff8211171561189857611897611841565b5b80604052505050565b60006118ab611744565b90506118b78282611870565b919050565b600067ffffffffffffffff8211156118d7576118d6611841565b5b6118e082611830565b9050602081019050919050565b82818337600083830152505050565b600061190f61190a846118bc565b6118a1565b90508281526020810184848401111561192b5761192a61182b565b5b6119368482856118ed565b509392505050565b600082601f83011261195357611952611826565b5b81356119638482602086016118fc565b91505092915050565b6000602082840312156119825761198161174e565b5b600082013567ffffffffffffffff8111156119a05761199f611753565b5b6119ac8482850161193e565b91505092915050565b7f4e487b7100000000000000000000000000000000000000000000000000000000600052602160045260246000fd5b600681106119f5576119f46119b5565b5b50565b6000819050611a06826119e4565b919050565b6000611a16826119f8565b9050919050565b611a2681611a0b565b82525050565b6000602082019050611a416000830184611a1d565b92915050565b600081519050919050565b600082825260208201905092915050565b60005b83811015611a81578082015181840152602081019050611a66565b83811115611a90576000848401525b50505050565b6000611aa182611a47565b611aab8185611a52565b9350611abb818560208601611a63565b611ac481611830565b840191505092915050565b611ad8816116e7565b82525050565b60006040830160008301518482036000860152611afb8282611a96565b9150506020830151611b106020860182611acf565b508091505092915050565b60006020820190508181036000830152611b358184611ade565b905092915050565b611b4681611758565b82525050565b6000602082019050611b616000830184611b3d565b92915050565b611b70816116c6565b8114611b7b57600080fd5b50565b600081359050611b8d81611b67565b92915050565b600060208284031215611ba957611ba861174e565b5b6000611bb784828501611b7e565b91505092915050565b60008115159050919050565b611bd581611bc0565b82525050565b606082016000820151611bf16000850182611bcc565b506020820151611c046020850182611bcc565b506040820151611c176040850182611acf565b50505050565b6000606082019050611c326000830184611bdb565b92915050565b600082825260208201905092915050565b7f596f75277265206e6f74206120766f7465720000000000000000000000000000600082015250565b6000611c7f601283611c38565b9150611c8a82611c49565b602082019050919050565b60006020820190508181036000830152611cae81611c72565b9050919050565b7f566f74696e672073657373696f6e2068617665206e6f7420737461727465642060008201527f7965740000000000000000000000000000000000000000000000000000000000602082015250565b6000611d11602383611c38565b9150611d1c82611cb5565b604082019050919050565b60006020820190508181036000830152611d4081611d04565b9050919050565b7f596f75206861766520616c726561647920766f74656400000000000000000000600082015250565b6000611d7d601683611c38565b9150611d8882611d47565b602082019050919050565b60006020820190508181036000830152611dac81611d70565b9050919050565b7f50726f706f73616c206e6f7420666f756e640000000000000000000000000000600082015250565b6000611de9601283611c38565b9150611df482611db3565b602082019050919050565b60006020820190508181036000830152611e1881611ddc565b9050919050565b7f4e487b7100000000000000000000000000000000000000000000000000000000600052603260045260246000fd5b7f4e487b7100000000000000000000000000000000000000000000000000000000600052601160045260246000fd5b6000611e88826116e7565b91507fffffffffffffffffffffffffffffffffffffffffffffffffffffffffffffffff8203611eba57611eb9611e4e565b5b600182019050919050565b6000819050919050565b6000611eea611ee5611ee084611758565b611ec5565b6116e7565b9050919050565b611efa81611ecf565b82525050565b6000604082019050611f1560008301856116d8565b611f226020830184611ef1565b9392505050565b600081905092915050565b50565b6000611f44600083611f29565b9150611f4f82611f34565b600082019050919050565b6000611f6582611f37565b9150819050919050565b7f50726f706f73616c7320617265206e6f7420616c6c6f77656420796574000000600082015250565b6000611fa5601d83611c38565b9150611fb082611f6f565b602082019050919050565b60006020820190508181036000830152611fd481611f98565b9050919050565b6000611fe8600083611c38565b9150611ff382611f34565b600082019050919050565b6000602082019050818103600083015261201781611fdb565b9050919050565b600061202982611a47565b6120338185611c38565b9350612043818560208601611a63565b61204c81611830565b840191505092915050565b60006020820190508181036000830152612071818461201e565b905092915050565b7f596f752063616e206e6f742070726f706f736520616e20656d7074792070726f60008201527f706f73616c000000000000000000000000000000000000000000000000000000602082015250565b60006120d5602583611c38565b91506120e082612079565b604082019050919050565b60006020820190508181036000830152612104816120c8565b9050919050565b6000612116826116e7565b9150612121836116e7565b92508282101561213457612133611e4e565b5b828203905092915050565b600060208201905061215460008301846116f1565b92915050565b7f43757272656e7420737461747573206973206e6f7420766f74696e672073657360008201527f73696f6e20656e64656400000000000000000000000000000000000000000000602082015250565b60006121b6602a83611c38565b91506121c18261215a565b604082019050919050565b600060208201905081810360008301526121e5816121a9565b9050919050565b60006040820190506122016000830185611a1d565b61220e6020830184611a1d565b9392505050565b7f4e487b7100000000000000000000000000000000000000000000000000000000600052602260045260246000fd5b6000600282049050600182168061225c57607f821691505b60208210810361226f5761226e612215565b5b50919050565b7f5265676973746572696e672070726f706f73616c732063616e206e6f7420626560008201527f2073746172746564206e6f770000000000000000000000000000000000000000602082015250565b60006122d1602c83611c38565b91506122dc82612275565b604082019050919050565b60006020820190508181036000830152612300816122c4565b9050919050565b7f5265676973746572696e672070726f706f73616c732068617665206e6f74207360008201527f7461727465642079657400000000000000000000000000000000000000000000602082015250565b6000612363602a83611c38565b915061236e82612307565b604082019050919050565b6000602082019050818103600083015261239281612356565b9050919050565b7f5265676973746572696e672070726f706f73616c73207068617365206973206e60008201527f6f742066696e6973686564000000000000000000000000000000000000000000602082015250565b60006123f5602b83611c38565b915061240082612399565b604082019050919050565b60006020820190508181036000830152612424816123e8565b9050919050565b7f4f776e61626c653a206e6577206f776e657220697320746865207a65726f206160008201527f6464726573730000000000000000000000000000000000000000000000000000602082015250565b6000612487602683611c38565b91506124928261242b565b604082019050919050565b600060208201905081810360008301526124b68161247a565b9050919050565b7f566f7465727320726567697374726174696f6e206973206e6f74206f70656e2060008201527f7965740000000000000000000000000000000000000000000000000000000000602082015250565b6000612519602383611c38565b9150612524826124bd565b604082019050919050565b600060208201905081810360008301526125488161250c565b9050919050565b7f416c726561647920726567697374657265640000000000000000000000000000600082015250565b6000612585601283611c38565b91506125908261254f565b602082019050919050565b600060208201905081810360008301526125b481612578565b9050919050565b7f4f776e61626c653a2063616c6c6572206973206e6f7420746865206f776e6572600082015250565b60006125f1602083611c38565b91506125fc826125bb565b602082019050919050565b60006020820190508181036000830152612620816125e4565b905091905056fea2646970667358221220e3176e51a69d600077566a15f4224d46b6b39a5417bd3965faae8a8f81261d9a64736f6c634300080d0033",
  "immutableReferences": {},
  "source": "// SPDX-License-Identifier: MIT\npragma solidity 0.8.13;\n\nimport \"@openzeppelin/contracts/access/Ownable.sol\";\n\n/// @title Alyra project #3 Voting dApp\n/// @author Yves Toiser (yves.toiser@pm.me)\ncontract Voting is Ownable {\n\n    struct Voter {\n        bool isRegistered;\n        bool hasVoted;\n        uint votedProposalId;\n    }\n\n    struct Proposal {\n        string description;\n        uint voteCount;\n    }\n\n    enum  WorkflowStatus {\n        RegisteringVoters,\n        ProposalsRegistrationStarted,\n        ProposalsRegistrationEnded,\n        VotingSessionStarted,\n        VotingSessionEnded,\n        VotesTallied\n    }\n\n    uint128 public winningProposalID;\n    uint128 highestVoteCount;\n\n    WorkflowStatus public workflowStatus;\n    Proposal[] proposalsArray;\n    mapping (address => Voter) voters;\n\n    event VoterRegistered(address voterAddress);\n    event WorkflowStatusChange(WorkflowStatus previousStatus, WorkflowStatus newStatus);\n    event ProposalRegistered(uint proposalId);\n    event Voted (address voter, uint proposalId);\n    event LogBadCall(address user);\n    event LogDepot(address user, uint quantity);\n\n    /**\n     * @dev This modifier check if the sender is registered on the whitelist.\n     */\n    modifier onlyVoters() {\n        require(voters[msg.sender].isRegistered, \"You're not a voter\");\n        _;\n    }\n\n    /**\n     * @dev receive function will emit event in case of ether sent to the contract.\n     */\n    receive() external payable {\n        emit LogDepot(msg.sender, msg.value);\n    }\n\n    /**\n     * @dev fallback function will emit event in case of bad call of the contract.\n     */\n    fallback() external {\n        emit LogBadCall(msg.sender);\n    }\n\n    /**\n     * @notice returns a voter.\n     *\n     * @dev onlyVoters.\n     *\n     * @param _addr the address of the voter you want to get.\n     *\n     * @return Voter The voter.\n     *\n     */\n    function getVoter(address _addr) external onlyVoters view returns (Voter memory) {\n        return voters[_addr];\n    }\n\n    /**\n     * @notice returns a proposal.\n     *\n     * @dev onlyVoters.\n     *\n     * @param _id the proposal id you want to get.\n     *\n     * @return Proposal The proposal.\n     *\n     */\n    function getOneProposal(uint _id) external onlyVoters view returns (Proposal memory) {\n        return proposalsArray[_id];\n    }\n\n    /**\n     * @notice withdraw function. Can only be used by the owner of the contract.\n     *\n     * @dev withdraw function. OnlyOwner.\n     *\n     * @param amount the amount to withdraw.\n     */\n    function withdraw(uint amount) external onlyOwner {\n        msg.sender.call{value: amount}(\"\");\n    }\n\n    /**\n     * @notice Add a voter to the whitelist.\n     *\n     * @dev Will emit appropriate event. onlyOwner.\n     *\n     * @param _addr the address of the voter that the owner is adding to the whitelist.\n     */\n    function addVoter(address _addr) external onlyOwner {\n        require(workflowStatus == WorkflowStatus.RegisteringVoters, \"Voters registration is not open yet\");\n        require(voters[_addr].isRegistered != true, \"Already registered\");\n\n        voters[_addr].isRegistered = true;\n        emit VoterRegistered(_addr);\n    }\n\n    /**\n     * @notice Add a proposal.\n     *\n     * @dev Will emit appropriate event. Proposal can not be empty string. onlyVoter.\n     *\n     * @param _desc the proposal description chosen by the voter.\n     */\n    function addProposal(string memory _desc) external onlyVoters {\n        require(workflowStatus == WorkflowStatus.ProposalsRegistrationStarted, \"Proposals are not allowed yet\");\n        require(keccak256(abi.encode(_desc)) != keccak256(abi.encode(\"\")), \"You can not propose an empty proposal\");\n\n        Proposal memory proposal;\n        proposal.description = _desc;\n        proposalsArray.push(proposal);\n        emit ProposalRegistered(proposalsArray.length-1);\n    }\n\n    /**\n     * @notice Perform the vote of the voter.\n     *\n     * @dev We set a temporary winning proposal id to prevent making a loop in tally vote and fix security breach.\n     * onlyVoter. Will emit appropriate event.\n     *\n     * @param _id the proposal id chosen by the voter.\n     */\n    function setVote(uint128 _id) external onlyVoters {\n        require(workflowStatus == WorkflowStatus.VotingSessionStarted, \"Voting session have not started yet\");\n        require(voters[msg.sender].hasVoted != true, \"You have already voted\");\n        require(_id < proposalsArray.length, \"Proposal not found\");\n\n        voters[msg.sender].votedProposalId = _id;\n        voters[msg.sender].hasVoted = true;\n        proposalsArray[_id].voteCount++;\n\n        if (proposalsArray[_id].voteCount > highestVoteCount) {\n            highestVoteCount = uint128(proposalsArray[_id].voteCount);\n            winningProposalID = _id;\n        }\n\n        emit Voted(msg.sender, _id);\n    }\n\n    /**\n     * @notice Advance workflow status to 'ProposalsRegistrationStarted'.\n     *\n     * @dev Change workflow status and emit relative event. onlyOwner.\n     */\n    function startProposalsRegistering() external onlyOwner {\n        require(workflowStatus == WorkflowStatus.RegisteringVoters, \"Registering proposals can not be started now\");\n        workflowStatus = WorkflowStatus.ProposalsRegistrationStarted;\n        emit WorkflowStatusChange(WorkflowStatus.RegisteringVoters, WorkflowStatus.ProposalsRegistrationStarted);\n    }\n\n    /**\n     * @notice Advance workflow status to 'ProposalsRegistrationEnded'.\n     *\n     * @dev Change workflow status and emit relative event. onlyOwner.\n     */\n    function endProposalsRegistering() external onlyOwner {\n        require(workflowStatus == WorkflowStatus.ProposalsRegistrationStarted, \"Registering proposals have not started yet\");\n        workflowStatus = WorkflowStatus.ProposalsRegistrationEnded;\n        emit WorkflowStatusChange(WorkflowStatus.ProposalsRegistrationStarted, WorkflowStatus.ProposalsRegistrationEnded);\n    }\n\n    /**\n     * @notice Advance workflow status to 'VotingSessionStarted'.\n     *\n     * @dev Change workflow status and emit relative event. onlyOwner.\n     */\n    function startVotingSession() external onlyOwner {\n        require(workflowStatus == WorkflowStatus.ProposalsRegistrationEnded, \"Registering proposals phase is not finished\");\n        workflowStatus = WorkflowStatus.VotingSessionStarted;\n        emit WorkflowStatusChange(WorkflowStatus.ProposalsRegistrationEnded, WorkflowStatus.VotingSessionStarted);\n    }\n\n    /**\n     * @notice Advance workflow status to 'VotingSessionEnded'.\n     *\n     * @dev Change workflow status and emit relative event. onlyOwner.\n     */\n    function endVotingSession() external onlyOwner {\n        require(workflowStatus == WorkflowStatus.VotingSessionStarted, \"Voting session have not started yet\");\n        workflowStatus = WorkflowStatus.VotingSessionEnded;\n        emit WorkflowStatusChange(WorkflowStatus.VotingSessionStarted, WorkflowStatus.VotingSessionEnded);\n    }\n\n    /**\n     * @notice Advance workflow status to 'tallyVotes'.\n     *\n     * @dev Change workflow status and emit relative event. onlyOwner.\n     * Winning proposal id is already determined by setVote function.\n     */\n    function tallyVotes() external onlyOwner {\n        require(workflowStatus == WorkflowStatus.VotingSessionEnded, \"Current status is not voting session ended\");\n        workflowStatus = WorkflowStatus.VotesTallied;\n        emit WorkflowStatusChange(WorkflowStatus.VotingSessionEnded, WorkflowStatus.VotesTallied);\n    }\n}",
  "sourcePath": "/home/jack/Dev/PROJEX/3_Alyra_Projet_dApp/truffle/contracts/Voting.sol",
  "compiler": {
    "name": "solc",
    "version": "0.8.13+commit.abaa5c0e.Emscripten.clang"
  },
  "schemaVersion": "3.4.7",
  "updatedAt": "2022-07-12T07:19:39.379Z",
  "networkType": "ethereum",
  "devdoc": {
    "author": "Yves Toiser (yves.toiser@pm.me)",
    "kind": "dev",
    "methods": {
      "addProposal(string)": {
        "details": "Will emit appropriate event. Proposal can not be empty string. onlyVoter.",
        "params": {
          "_desc": "the proposal description chosen by the voter."
        }
      },
      "addVoter(address)": {
        "details": "Will emit appropriate event. onlyOwner.",
        "params": {
          "_addr": "the address of the voter that the owner is adding to the whitelist."
        }
      },
      "endProposalsRegistering()": {
        "details": "Change workflow status and emit relative event. onlyOwner."
      },
      "endVotingSession()": {
        "details": "Change workflow status and emit relative event. onlyOwner."
      },
      "getOneProposal(uint256)": {
        "details": "onlyVoters.",
        "params": {
          "_id": "the proposal id you want to get."
        },
        "returns": {
          "_0": "Proposal The proposal."
        }
      },
      "getVoter(address)": {
        "details": "onlyVoters.",
        "params": {
          "_addr": "the address of the voter you want to get."
        },
        "returns": {
          "_0": "Voter The voter."
        }
      },
      "owner()": {
        "details": "Returns the address of the current owner."
      },
      "renounceOwnership()": {
        "details": "Leaves the contract without owner. It will not be possible to call `onlyOwner` functions anymore. Can only be called by the current owner. NOTE: Renouncing ownership will leave the contract without an owner, thereby removing any functionality that is only available to the owner."
      },
      "setVote(uint128)": {
        "details": "We set a temporary winning proposal id to prevent making a loop in tally vote and fix security breach. onlyVoter. Will emit appropriate event.",
        "params": {
          "_id": "the proposal id chosen by the voter."
        }
      },
      "startProposalsRegistering()": {
        "details": "Change workflow status and emit relative event. onlyOwner."
      },
      "startVotingSession()": {
        "details": "Change workflow status and emit relative event. onlyOwner."
      },
      "tallyVotes()": {
        "details": "Change workflow status and emit relative event. onlyOwner. Winning proposal id is already determined by setVote function."
      },
      "transferOwnership(address)": {
        "details": "Transfers ownership of the contract to a new account (`newOwner`). Can only be called by the current owner."
      },
      "withdraw(uint256)": {
        "details": "withdraw function. OnlyOwner.",
        "params": {
          "amount": "the amount to withdraw."
        }
      }
    },
    "title": "Alyra project #3 Voting dApp",
    "version": 1
  },
  "userdoc": {
    "kind": "user",
    "methods": {
      "addProposal(string)": {
        "notice": "Add a proposal."
      },
      "addVoter(address)": {
        "notice": "Add a voter to the whitelist."
      },
      "endProposalsRegistering()": {
        "notice": "Advance workflow status to 'ProposalsRegistrationEnded'."
      },
      "endVotingSession()": {
        "notice": "Advance workflow status to 'VotingSessionEnded'."
      },
      "getOneProposal(uint256)": {
        "notice": "returns a proposal."
      },
      "getVoter(address)": {
        "notice": "returns a voter."
      },
      "setVote(uint128)": {
        "notice": "Perform the vote of the voter."
      },
      "startProposalsRegistering()": {
        "notice": "Advance workflow status to 'ProposalsRegistrationStarted'."
      },
      "startVotingSession()": {
        "notice": "Advance workflow status to 'VotingSessionStarted'."
      },
      "tallyVotes()": {
        "notice": "Advance workflow status to 'tallyVotes'."
      },
      "withdraw(uint256)": {
        "notice": "withdraw function. Can only be used by the owner of the contract."
      }
    },
    "version": 1
  }
}