{
  "contractName": "Voting",
  "abi": [
    {
      "anonymous": false,
      "inputs": [
        {
          "indexed": false,
          "internalType": "address",
          "name": "user",
          "type": "address"
        }
      ],
      "name": "LogBadCall",
      "type": "event"
    },
    {
      "anonymous": false,
      "inputs": [
        {
          "indexed": false,
          "internalType": "address",
          "name": "user",
          "type": "address"
        },
        {
          "indexed": false,
          "internalType": "uint256",
          "name": "quantity",
          "type": "uint256"
        }
      ],
      "name": "LogDepot",
      "type": "event"
    },
    {
      "anonymous": false,
      "inputs": [
        {
          "indexed": true,
          "internalType": "address",
          "name": "previousOwner",
          "type": "address"
        },
        {
          "indexed": true,
          "internalType": "address",
          "name": "newOwner",
          "type": "address"
        }
      ],
      "name": "OwnershipTransferred",
      "type": "event"
    },
    {
      "anonymous": false,
      "inputs": [
        {
          "indexed": false,
          "internalType": "uint256",
          "name": "proposalId",
          "type": "uint256"
        }
      ],
      "name": "ProposalRegistered",
      "type": "event"
    },
    {
      "anonymous": false,
      "inputs": [
        {
          "indexed": false,
          "internalType": "address",
          "name": "voter",
          "type": "address"
        },
        {
          "indexed": false,
          "internalType": "uint256",
          "name": "proposalId",
          "type": "uint256"
        }
      ],
      "name": "Voted",
      "type": "event"
    },
    {
      "anonymous": false,
      "inputs": [
        {
          "indexed": false,
          "internalType": "address",
          "name": "voterAddress",
          "type": "address"
        }
      ],
      "name": "VoterRegistered",
      "type": "event"
    },
    {
      "anonymous": false,
      "inputs": [
        {
          "indexed": false,
          "internalType": "enum Voting.WorkflowStatus",
          "name": "previousStatus",
          "type": "uint8"
        },
        {
          "indexed": false,
          "internalType": "enum Voting.WorkflowStatus",
          "name": "newStatus",
          "type": "uint8"
        }
      ],
      "name": "WorkflowStatusChange",
      "type": "event"
    },
    {
      "stateMutability": "nonpayable",
      "type": "fallback"
    },
    {
      "inputs": [],
      "name": "owner",
      "outputs": [
        {
          "internalType": "address",
          "name": "",
          "type": "address"
        }
      ],
      "stateMutability": "view",
      "type": "function",
      "constant": true
    },
    {
      "inputs": [],
      "name": "renounceOwnership",
      "outputs": [],
      "stateMutability": "nonpayable",
      "type": "function"
    },
    {
      "inputs": [
        {
          "internalType": "address",
          "name": "newOwner",
          "type": "address"
        }
      ],
      "name": "transferOwnership",
      "outputs": [],
      "stateMutability": "nonpayable",
      "type": "function"
    },
    {
      "inputs": [],
      "name": "winningProposalID",
      "outputs": [
        {
          "internalType": "uint128",
          "name": "",
          "type": "uint128"
        }
      ],
      "stateMutability": "view",
      "type": "function",
      "constant": true
    },
    {
      "inputs": [],
      "name": "workflowStatus",
      "outputs": [
        {
          "internalType": "enum Voting.WorkflowStatus",
          "name": "",
          "type": "uint8"
        }
      ],
      "stateMutability": "view",
      "type": "function",
      "constant": true
    },
    {
      "stateMutability": "payable",
      "type": "receive",
      "payable": true
    },
    {
      "inputs": [
        {
          "internalType": "address",
          "name": "_addr",
          "type": "address"
        }
      ],
      "name": "getVoter",
      "outputs": [
        {
          "components": [
            {
              "internalType": "bool",
              "name": "isRegistered",
              "type": "bool"
            },
            {
              "internalType": "bool",
              "name": "hasVoted",
              "type": "bool"
            },
            {
              "internalType": "uint256",
              "name": "votedProposalId",
              "type": "uint256"
            }
          ],
          "internalType": "struct Voting.Voter",
          "name": "",
          "type": "tuple"
        }
      ],
      "stateMutability": "view",
      "type": "function",
      "constant": true
    },
    {
      "inputs": [
        {
          "internalType": "uint256",
          "name": "_id",
          "type": "uint256"
        }
      ],
      "name": "getOneProposal",
      "outputs": [
        {
          "components": [
            {
              "internalType": "string",
              "name": "description",
              "type": "string"
            },
            {
              "internalType": "uint256",
              "name": "voteCount",
              "type": "uint256"
            }
          ],
          "internalType": "struct Voting.Proposal",
          "name": "",
          "type": "tuple"
        }
      ],
      "stateMutability": "view",
      "type": "function",
      "constant": true
    },
    {
      "inputs": [
        {
          "internalType": "address",
          "name": "_addr",
          "type": "address"
        }
      ],
      "name": "addVoter",
      "outputs": [],
      "stateMutability": "nonpayable",
      "type": "function"
    },
    {
      "inputs": [
        {
          "internalType": "string",
          "name": "_desc",
          "type": "string"
        }
      ],
      "name": "addProposal",
      "outputs": [],
      "stateMutability": "nonpayable",
      "type": "function"
    },
    {
      "inputs": [
        {
          "internalType": "uint128",
          "name": "_id",
          "type": "uint128"
        }
      ],
      "name": "setVote",
      "outputs": [],
      "stateMutability": "nonpayable",
      "type": "function"
    },
    {
      "inputs": [],
      "name": "startProposalsRegistering",
      "outputs": [],
      "stateMutability": "nonpayable",
      "type": "function"
    },
    {
      "inputs": [],
      "name": "endProposalsRegistering",
      "outputs": [],
      "stateMutability": "nonpayable",
      "type": "function"
    },
    {
      "inputs": [],
      "name": "startVotingSession",
      "outputs": [],
      "stateMutability": "nonpayable",
      "type": "function"
    },
    {
      "inputs": [],
      "name": "endVotingSession",
      "outputs": [],
      "stateMutability": "nonpayable",
      "type": "function"
    },
    {
      "inputs": [],
      "name": "tallyVotes",
      "outputs": [],
      "stateMutability": "nonpayable",
      "type": "function"
    }
  ],
  "bytecode": "0x60806040523480156200001157600080fd5b5062000032620000266200003860201b60201c565b6200004060201b60201c565b62000104565b600033905090565b60008060009054906101000a900473ffffffffffffffffffffffffffffffffffffffff169050816000806101000a81548173ffffffffffffffffffffffffffffffffffffffff021916908373ffffffffffffffffffffffffffffffffffffffff1602179055508173ffffffffffffffffffffffffffffffffffffffff168173ffffffffffffffffffffffffffffffffffffffff167f8be0079c531659141344cd1fd0a4f28419497f9722a3daafe3b4186f6b6457e060405160405180910390a35050565b61257280620001146000396000f3fe6080604052600436106100ec5760003560e01c8063a7bfab161161008a578063d4f50f9811610059578063d4f50f98146102f5578063ee74c67814610332578063f2fde38b14610349578063f4ab9adf146103725761012c565b8063a7bfab1614610285578063bdc014311461029c578063c7038a4e146102c7578063c88af42f146102de5761012c565b8063715018a6116100c6578063715018a6146101db5780638da5cb5b146101f2578063a1edffa21461021d578063a2788cce146102485761012c565b806329e5c5fd146101725780632fdae3c51461019b578063378a2178146101c45761012c565b3661012c577f1d76c7e5736b9b335988489baea5b96ec803f8f1194842fe5ce3a6ec85e79b563334604051610122929190611658565b60405180910390a1005b34801561013857600080fd5b507fcc97ff3d49208ba08dc7ada5cf9e88e59e047be7d363118838f7af1233c49c43336040516101689190611681565b60405180910390a1005b34801561017e57600080fd5b50610199600480360381019061019491906116f8565b61039b565b005b3480156101a757600080fd5b506101c260048036038101906101bd919061186b565b6107e5565b005b3480156101d057600080fd5b506101d9610a28565b005b3480156101e757600080fd5b506101f0610b0e565b005b3480156101fe57600080fd5b50610207610b22565b6040516102149190611681565b60405180910390f35b34801561022957600080fd5b50610232610b4b565b60405161023f919061192b565b60405180910390f35b34801561025457600080fd5b5061026f600480360381019061026a9190611972565b610b5e565b60405161027c9190611a73565b60405180910390f35b34801561029157600080fd5b5061029a610cc5565b005b3480156102a857600080fd5b506102b1610dab565b6040516102be9190611aa4565b60405180910390f35b3480156102d357600080fd5b506102dc610dcd565b005b3480156102ea57600080fd5b506102f3610eb3565b005b34801561030157600080fd5b5061031c60048036038101906103179190611aeb565b610f98565b6040516103299190611b75565b60405180910390f35b34801561033e57600080fd5b506103476110c0565b005b34801561035557600080fd5b50610370600480360381019061036b9190611aeb565b6111a6565b005b34801561037e57600080fd5b5061039960048036038101906103949190611aeb565b611229565b005b600460003373ffffffffffffffffffffffffffffffffffffffff1673ffffffffffffffffffffffffffffffffffffffff16815260200190815260200160002060000160009054906101000a900460ff1661042a576040517f08c379a000000000000000000000000000000000000000000000000000000000815260040161042190611bed565b60405180910390fd5b6003600581111561043e5761043d6118b4565b5b600260009054906101000a900460ff1660058111156104605761045f6118b4565b5b146104a0576040517f08c379a000000000000000000000000000000000000000000000000000000000815260040161049790611c7f565b60405180910390fd5b60011515600460003373ffffffffffffffffffffffffffffffffffffffff1673ffffffffffffffffffffffffffffffffffffffff16815260200190815260200160002060000160019054906101000a900460ff16151503610536576040517f08c379a000000000000000000000000000000000000000000000000000000000815260040161052d90611ceb565b60405180910390fd5b600380549050816fffffffffffffffffffffffffffffffff161061058f576040517f08c379a000000000000000000000000000000000000000000000000000000000815260040161058690611d57565b60405180910390fd5b806fffffffffffffffffffffffffffffffff16600460003373ffffffffffffffffffffffffffffffffffffffff1673ffffffffffffffffffffffffffffffffffffffff168152602001908152602001600020600101819055506001600460003373ffffffffffffffffffffffffffffffffffffffff1673ffffffffffffffffffffffffffffffffffffffff16815260200190815260200160002060000160016101000a81548160ff0219169083151502179055506003816fffffffffffffffffffffffffffffffff168154811061066957610668611d77565b5b9060005260206000209060020201600101600081548092919061068b90611dd5565b9190505550600160109054906101000a90046fffffffffffffffffffffffffffffffff166fffffffffffffffffffffffffffffffff166003826fffffffffffffffffffffffffffffffff16815481106106e7576106e6611d77565b5b90600052602060002090600202016001015411156107a9576003816fffffffffffffffffffffffffffffffff168154811061072557610724611d77565b5b906000526020600020906002020160010154600160106101000a8154816fffffffffffffffffffffffffffffffff02191690836fffffffffffffffffffffffffffffffff16021790555080600160006101000a8154816fffffffffffffffffffffffffffffffff02191690836fffffffffffffffffffffffffffffffff1602179055505b7f4d99b957a2bc29a30ebd96a7be8e68fe50a3c701db28a91436490b7d53870ca433826040516107da929190611e58565b60405180910390a150565b600460003373ffffffffffffffffffffffffffffffffffffffff1673ffffffffffffffffffffffffffffffffffffffff16815260200190815260200160002060000160009054906101000a900460ff16610874576040517f08c379a000000000000000000000000000000000000000000000000000000000815260040161086b90611bed565b60405180910390fd5b60016005811115610888576108876118b4565b5b600260009054906101000a900460ff1660058111156108aa576108a96118b4565b5b146108ea576040517f08c379a00000000000000000000000000000000000000000000000000000000081526004016108e190611ecd565b60405180910390fd5b6040516020016108f990611f13565b60405160208183030381529060405280519060200120816040516020016109209190611f6c565b6040516020818303038152906040528051906020012003610976576040517f08c379a000000000000000000000000000000000000000000000000000000000815260040161096d90612000565b60405180910390fd5b61097e61151c565b818160000181905250600381908060018154018082558091505060019003906000526020600020906002020160009091909190915060008201518160000190805190602001906109cf929190611536565b506020820151816001015550507f92e393e9b54e2f801d3ea4beb0c5e71a21cc34a5d34b77d0fb8a3aa1650dc18f6001600380549050610a0f9190612020565b604051610a1c9190612054565b60405180910390a15050565b610a306113d2565b60046005811115610a4457610a436118b4565b5b600260009054906101000a900460ff166005811115610a6657610a656118b4565b5b14610aa6576040517f08c379a0000000000000000000000000000000000000000000000000000000008152600401610a9d906120e1565b60405180910390fd5b6005600260006101000a81548160ff02191690836005811115610acc57610acb6118b4565b5b02179055507f0a97a4ee45751e2abf3e4fc8946939630b11b371ea8ae39ccdc3056e98f5cc3f60046005604051610b04929190612101565b60405180910390a1565b610b166113d2565b610b206000611450565b565b60008060009054906101000a900473ffffffffffffffffffffffffffffffffffffffff16905090565b600260009054906101000a900460ff1681565b610b6661151c565b600460003373ffffffffffffffffffffffffffffffffffffffff1673ffffffffffffffffffffffffffffffffffffffff16815260200190815260200160002060000160009054906101000a900460ff16610bf5576040517f08c379a0000000000000000000000000000000000000000000000000000000008152600401610bec90611bed565b60405180910390fd5b60038281548110610c0957610c08611d77565b5b9060005260206000209060020201604051806040016040529081600082018054610c3290612159565b80601f0160208091040260200160405190810160405280929190818152602001828054610c5e90612159565b8015610cab5780601f10610c8057610100808354040283529160200191610cab565b820191906000526020600020905b815481529060010190602001808311610c8e57829003601f168201915b505050505081526020016001820154815250509050919050565b610ccd6113d2565b60036005811115610ce157610ce06118b4565b5b600260009054906101000a900460ff166005811115610d0357610d026118b4565b5b14610d43576040517f08c379a0000000000000000000000000000000000000000000000000000000008152600401610d3a90611c7f565b60405180910390fd5b6004600260006101000a81548160ff02191690836005811115610d6957610d686118b4565b5b02179055507f0a97a4ee45751e2abf3e4fc8946939630b11b371ea8ae39ccdc3056e98f5cc3f60036004604051610da1929190612101565b60405180910390a1565b600160009054906101000a90046fffffffffffffffffffffffffffffffff1681565b610dd56113d2565b60006005811115610de957610de86118b4565b5b600260009054906101000a900460ff166005811115610e0b57610e0a6118b4565b5b14610e4b576040517f08c379a0000000000000000000000000000000000000000000000000000000008152600401610e42906121fc565b60405180910390fd5b6001600260006101000a81548160ff02191690836005811115610e7157610e706118b4565b5b02179055507f0a97a4ee45751e2abf3e4fc8946939630b11b371ea8ae39ccdc3056e98f5cc3f60006001604051610ea9929190612101565b60405180910390a1565b610ebb6113d2565b60016005811115610ecf57610ece6118b4565b5b600260009054906101000a900460ff166005811115610ef157610ef06118b4565b5b14610f31576040517f08c379a0000000000000000000000000000000000000000000000000000000008152600401610f289061228e565b60405180910390fd5b60028060006101000a81548160ff02191690836005811115610f5657610f556118b4565b5b02179055507f0a97a4ee45751e2abf3e4fc8946939630b11b371ea8ae39ccdc3056e98f5cc3f60016002604051610f8e929190612101565b60405180910390a1565b610fa06115bc565b600460003373ffffffffffffffffffffffffffffffffffffffff1673ffffffffffffffffffffffffffffffffffffffff16815260200190815260200160002060000160009054906101000a900460ff1661102f576040517f08c379a000000000000000000000000000000000000000000000000000000000815260040161102690611bed565b60405180910390fd5b600460008373ffffffffffffffffffffffffffffffffffffffff1673ffffffffffffffffffffffffffffffffffffffff1681526020019081526020016000206040518060600160405290816000820160009054906101000a900460ff161515151581526020016000820160019054906101000a900460ff161515151581526020016001820154815250509050919050565b6110c86113d2565b600260058111156110dc576110db6118b4565b5b600260009054906101000a900460ff1660058111156110fe576110fd6118b4565b5b1461113e576040517f08c379a000000000000000000000000000000000000000000000000000000000815260040161113590612320565b60405180910390fd5b6003600260006101000a81548160ff02191690836005811115611164576111636118b4565b5b02179055507f0a97a4ee45751e2abf3e4fc8946939630b11b371ea8ae39ccdc3056e98f5cc3f6002600360405161119c929190612101565b60405180910390a1565b6111ae6113d2565b600073ffffffffffffffffffffffffffffffffffffffff168173ffffffffffffffffffffffffffffffffffffffff160361121d576040517f08c379a0000000000000000000000000000000000000000000000000000000008152600401611214906123b2565b60405180910390fd5b61122681611450565b50565b6112316113d2565b60006005811115611245576112446118b4565b5b600260009054906101000a900460ff166005811115611267576112666118b4565b5b146112a7576040517f08c379a000000000000000000000000000000000000000000000000000000000815260040161129e90612444565b60405180910390fd5b60011515600460008373ffffffffffffffffffffffffffffffffffffffff1673ffffffffffffffffffffffffffffffffffffffff16815260200190815260200160002060000160009054906101000a900460ff1615150361133d576040517f08c379a0000000000000000000000000000000000000000000000000000000008152600401611334906124b0565b60405180910390fd5b6001600460008373ffffffffffffffffffffffffffffffffffffffff1673ffffffffffffffffffffffffffffffffffffffff16815260200190815260200160002060000160006101000a81548160ff0219169083151502179055507fb6be2187d059cc2a55fe29e0e503b566e1e0f8c8780096e185429350acffd3dd816040516113c79190611681565b60405180910390a150565b6113da611514565b73ffffffffffffffffffffffffffffffffffffffff166113f8610b22565b73ffffffffffffffffffffffffffffffffffffffff161461144e576040517f08c379a00000000000000000000000000000000000000000000000000000000081526004016114459061251c565b60405180910390fd5b565b60008060009054906101000a900473ffffffffffffffffffffffffffffffffffffffff169050816000806101000a81548173ffffffffffffffffffffffffffffffffffffffff021916908373ffffffffffffffffffffffffffffffffffffffff1602179055508173ffffffffffffffffffffffffffffffffffffffff168173ffffffffffffffffffffffffffffffffffffffff167f8be0079c531659141344cd1fd0a4f28419497f9722a3daafe3b4186f6b6457e060405160405180910390a35050565b600033905090565b604051806040016040528060608152602001600081525090565b82805461154290612159565b90600052602060002090601f01602090048101928261156457600085556115ab565b82601f1061157d57805160ff19168380011785556115ab565b828001600101855582156115ab579182015b828111156115aa57825182559160200191906001019061158f565b5b5090506115b891906115e1565b5090565b6040518060600160405280600015158152602001600015158152602001600081525090565b5b808211156115fa5760008160009055506001016115e2565b5090565b600073ffffffffffffffffffffffffffffffffffffffff82169050919050565b6000611629826115fe565b9050919050565b6116398161161e565b82525050565b6000819050919050565b6116528161163f565b82525050565b600060408201905061166d6000830185611630565b61167a6020830184611649565b9392505050565b60006020820190506116966000830184611630565b92915050565b6000604051905090565b600080fd5b600080fd5b60006fffffffffffffffffffffffffffffffff82169050919050565b6116d5816116b0565b81146116e057600080fd5b50565b6000813590506116f2816116cc565b92915050565b60006020828403121561170e5761170d6116a6565b5b600061171c848285016116e3565b91505092915050565b600080fd5b600080fd5b6000601f19601f8301169050919050565b7f4e487b7100000000000000000000000000000000000000000000000000000000600052604160045260246000fd5b6117788261172f565b810181811067ffffffffffffffff8211171561179757611796611740565b5b80604052505050565b60006117aa61169c565b90506117b6828261176f565b919050565b600067ffffffffffffffff8211156117d6576117d5611740565b5b6117df8261172f565b9050602081019050919050565b82818337600083830152505050565b600061180e611809846117bb565b6117a0565b90508281526020810184848401111561182a5761182961172a565b5b6118358482856117ec565b509392505050565b600082601f83011261185257611851611725565b5b81356118628482602086016117fb565b91505092915050565b600060208284031215611881576118806116a6565b5b600082013567ffffffffffffffff81111561189f5761189e6116ab565b5b6118ab8482850161183d565b91505092915050565b7f4e487b7100000000000000000000000000000000000000000000000000000000600052602160045260246000fd5b600681106118f4576118f36118b4565b5b50565b6000819050611905826118e3565b919050565b6000611915826118f7565b9050919050565b6119258161190a565b82525050565b6000602082019050611940600083018461191c565b92915050565b61194f8161163f565b811461195a57600080fd5b50565b60008135905061196c81611946565b92915050565b600060208284031215611988576119876116a6565b5b60006119968482850161195d565b91505092915050565b600081519050919050565b600082825260208201905092915050565b60005b838110156119d95780820151818401526020810190506119be565b838111156119e8576000848401525b50505050565b60006119f98261199f565b611a0381856119aa565b9350611a138185602086016119bb565b611a1c8161172f565b840191505092915050565b611a308161163f565b82525050565b60006040830160008301518482036000860152611a5382826119ee565b9150506020830151611a686020860182611a27565b508091505092915050565b60006020820190508181036000830152611a8d8184611a36565b905092915050565b611a9e816116b0565b82525050565b6000602082019050611ab96000830184611a95565b92915050565b611ac88161161e565b8114611ad357600080fd5b50565b600081359050611ae581611abf565b92915050565b600060208284031215611b0157611b006116a6565b5b6000611b0f84828501611ad6565b91505092915050565b60008115159050919050565b611b2d81611b18565b82525050565b606082016000820151611b496000850182611b24565b506020820151611b5c6020850182611b24565b506040820151611b6f6040850182611a27565b50505050565b6000606082019050611b8a6000830184611b33565b92915050565b600082825260208201905092915050565b7f596f75277265206e6f74206120766f7465720000000000000000000000000000600082015250565b6000611bd7601283611b90565b9150611be282611ba1565b602082019050919050565b60006020820190508181036000830152611c0681611bca565b9050919050565b7f566f74696e672073657373696f6e2068617665206e6f7420737461727465642060008201527f7965740000000000000000000000000000000000000000000000000000000000602082015250565b6000611c69602383611b90565b9150611c7482611c0d565b604082019050919050565b60006020820190508181036000830152611c9881611c5c565b9050919050565b7f596f75206861766520616c726561647920766f74656400000000000000000000600082015250565b6000611cd5601683611b90565b9150611ce082611c9f565b602082019050919050565b60006020820190508181036000830152611d0481611cc8565b9050919050565b7f50726f706f73616c206e6f7420666f756e640000000000000000000000000000600082015250565b6000611d41601283611b90565b9150611d4c82611d0b565b602082019050919050565b60006020820190508181036000830152611d7081611d34565b9050919050565b7f4e487b7100000000000000000000000000000000000000000000000000000000600052603260045260246000fd5b7f4e487b7100000000000000000000000000000000000000000000000000000000600052601160045260246000fd5b6000611de08261163f565b91507fffffffffffffffffffffffffffffffffffffffffffffffffffffffffffffffff8203611e1257611e11611da6565b5b600182019050919050565b6000819050919050565b6000611e42611e3d611e38846116b0565b611e1d565b61163f565b9050919050565b611e5281611e27565b82525050565b6000604082019050611e6d6000830185611630565b611e7a6020830184611e49565b9392505050565b7f50726f706f73616c7320617265206e6f7420616c6c6f77656420796574000000600082015250565b6000611eb7601d83611b90565b9150611ec282611e81565b602082019050919050565b60006020820190508181036000830152611ee681611eaa565b9050919050565b50565b6000611efd600083611b90565b9150611f0882611eed565b600082019050919050565b60006020820190508181036000830152611f2c81611ef0565b9050919050565b6000611f3e8261199f565b611f488185611b90565b9350611f588185602086016119bb565b611f618161172f565b840191505092915050565b60006020820190508181036000830152611f868184611f33565b905092915050565b7f596f752063616e206e6f742070726f706f736520616e20656d7074792070726f60008201527f706f73616c000000000000000000000000000000000000000000000000000000602082015250565b6000611fea602583611b90565b9150611ff582611f8e565b604082019050919050565b6000602082019050818103600083015261201981611fdd565b9050919050565b600061202b8261163f565b91506120368361163f565b92508282101561204957612048611da6565b5b828203905092915050565b60006020820190506120696000830184611649565b92915050565b7f43757272656e7420737461747573206973206e6f7420766f74696e672073657360008201527f73696f6e20656e64656400000000000000000000000000000000000000000000602082015250565b60006120cb602a83611b90565b91506120d68261206f565b604082019050919050565b600060208201905081810360008301526120fa816120be565b9050919050565b6000604082019050612116600083018561191c565b612123602083018461191c565b9392505050565b7f4e487b7100000000000000000000000000000000000000000000000000000000600052602260045260246000fd5b6000600282049050600182168061217157607f821691505b6020821081036121845761218361212a565b5b50919050565b7f5265676973746572696e672070726f706f73616c732063616e206e6f7420626560008201527f2073746172746564206e6f770000000000000000000000000000000000000000602082015250565b60006121e6602c83611b90565b91506121f18261218a565b604082019050919050565b60006020820190508181036000830152612215816121d9565b9050919050565b7f5265676973746572696e672070726f706f73616c732068617665206e6f74207360008201527f7461727465642079657400000000000000000000000000000000000000000000602082015250565b6000612278602a83611b90565b91506122838261221c565b604082019050919050565b600060208201905081810360008301526122a78161226b565b9050919050565b7f5265676973746572696e672070726f706f73616c73207068617365206973206e60008201527f6f742066696e6973686564000000000000000000000000000000000000000000602082015250565b600061230a602b83611b90565b9150612315826122ae565b604082019050919050565b60006020820190508181036000830152612339816122fd565b9050919050565b7f4f776e61626c653a206e6577206f776e657220697320746865207a65726f206160008201527f6464726573730000000000000000000000000000000000000000000000000000602082015250565b600061239c602683611b90565b91506123a782612340565b604082019050919050565b600060208201905081810360008301526123cb8161238f565b9050919050565b7f566f7465727320726567697374726174696f6e206973206e6f74206f70656e2060008201527f7965740000000000000000000000000000000000000000000000000000000000602082015250565b600061242e602383611b90565b9150612439826123d2565b604082019050919050565b6000602082019050818103600083015261245d81612421565b9050919050565b7f416c726561647920726567697374657265640000000000000000000000000000600082015250565b600061249a601283611b90565b91506124a582612464565b602082019050919050565b600060208201905081810360008301526124c98161248d565b9050919050565b7f4f776e61626c653a2063616c6c6572206973206e6f7420746865206f776e6572600082015250565b6000612506602083611b90565b9150612511826124d0565b602082019050919050565b60006020820190508181036000830152612535816124f9565b905091905056fea2646970667358221220c69b57581a689fe2811691ec20ece9248d8e6ff8845241a02d7699238f68708564736f6c634300080d0033",
  "immutableReferences": {},
  "source": "// SPDX-License-Identifier: MIT\n// Yves Toiser | Alyra Project #3 | 2022 | yves.toiser@pm.me\n\npragma solidity 0.8.13;\nimport \"@openzeppelin/contracts/access/Ownable.sol\";\n\ncontract Voting is Ownable {\n\n    uint128 public winningProposalID;\n    uint128 highestVoteCount;\n\n    struct Voter {\n        bool isRegistered;\n        bool hasVoted;\n        uint votedProposalId;\n    }\n\n    struct Proposal {\n        string description;\n        uint voteCount;\n    }\n\n    enum  WorkflowStatus {\n        RegisteringVoters,\n        ProposalsRegistrationStarted,\n        ProposalsRegistrationEnded,\n        VotingSessionStarted,\n        VotingSessionEnded,\n        VotesTallied\n    }\n\n    WorkflowStatus public workflowStatus;\n    Proposal[] proposalsArray;\n    mapping (address => Voter) voters;\n\n    event VoterRegistered(address voterAddress);\n    event WorkflowStatusChange(WorkflowStatus previousStatus, WorkflowStatus newStatus);\n    event ProposalRegistered(uint proposalId);\n    event Voted (address voter, uint proposalId);\n    event LogBadCall(address user);\n    event LogDepot(address user, uint quantity);\n\n    modifier onlyVoters() {\n        require(voters[msg.sender].isRegistered, \"You're not a voter\");\n        _;\n    }\n\n    /**\n    We have a receive and fallback function to handle case of people sending ether or making wrong calls\n    */\n    receive() external payable {\n        emit LogDepot(msg.sender, msg.value);\n    }\n\n    fallback() external {\n        emit LogBadCall(msg.sender);\n    }\n\n    // ::::::::::::: GETTERS ::::::::::::: //\n\n    function getVoter(address _addr) external onlyVoters view returns (Voter memory) {\n        return voters[_addr];\n    }\n\n    function getOneProposal(uint _id) external onlyVoters view returns (Proposal memory) {\n        return proposalsArray[_id];\n    }\n\n    // ::::::::::::: REGISTRATION ::::::::::::: //\n\n    function addVoter(address _addr) external onlyOwner {\n        require(workflowStatus == WorkflowStatus.RegisteringVoters, \"Voters registration is not open yet\");\n        require(voters[_addr].isRegistered != true, \"Already registered\");\n\n        voters[_addr].isRegistered = true;\n        emit VoterRegistered(_addr);\n    }\n\n    // ::::::::::::: PROPOSAL ::::::::::::: //\n\n    function addProposal(string memory _desc) external onlyVoters {\n        require(workflowStatus == WorkflowStatus.ProposalsRegistrationStarted, \"Proposals are not allowed yet\");\n        require(keccak256(abi.encode(_desc)) != keccak256(abi.encode(\"\")), \"You can not propose an empty proposal\");\n\n        Proposal memory proposal;\n        proposal.description = _desc;\n        proposalsArray.push(proposal);\n        emit ProposalRegistered(proposalsArray.length-1);\n    }\n\n    // ::::::::::::: VOTE ::::::::::::: //\n\n    function setVote(uint128 _id) external onlyVoters {\n        require(workflowStatus == WorkflowStatus.VotingSessionStarted, \"Voting session have not started yet\");\n        require(voters[msg.sender].hasVoted != true, \"You have already voted\");\n        require(_id < proposalsArray.length, \"Proposal not found\"); // pas oblig, et pas besoin du >0 car uint\n\n        voters[msg.sender].votedProposalId = _id;\n        voters[msg.sender].hasVoted = true;\n        proposalsArray[_id].voteCount++;\n\n        // We set a temporary winning proposal id to prevent making a loop in tally vote and fix security breach\n        if (proposalsArray[_id].voteCount > highestVoteCount) {\n            highestVoteCount = uint128(proposalsArray[_id].voteCount);\n            winningProposalID = _id;\n        }\n\n        emit Voted(msg.sender, _id);\n    }\n\n    // ::::::::::::: STATE ::::::::::::: //\n\n    function startProposalsRegistering() external onlyOwner {\n        require(workflowStatus == WorkflowStatus.RegisteringVoters, \"Registering proposals can not be started now\");\n        workflowStatus = WorkflowStatus.ProposalsRegistrationStarted;\n        emit WorkflowStatusChange(WorkflowStatus.RegisteringVoters, WorkflowStatus.ProposalsRegistrationStarted);\n    }\n\n    function endProposalsRegistering() external onlyOwner {\n        require(workflowStatus == WorkflowStatus.ProposalsRegistrationStarted, \"Registering proposals have not started yet\");\n        workflowStatus = WorkflowStatus.ProposalsRegistrationEnded;\n        emit WorkflowStatusChange(WorkflowStatus.ProposalsRegistrationStarted, WorkflowStatus.ProposalsRegistrationEnded);\n    }\n\n    function startVotingSession() external onlyOwner {\n        require(workflowStatus == WorkflowStatus.ProposalsRegistrationEnded, \"Registering proposals phase is not finished\");\n        workflowStatus = WorkflowStatus.VotingSessionStarted;\n        emit WorkflowStatusChange(WorkflowStatus.ProposalsRegistrationEnded, WorkflowStatus.VotingSessionStarted);\n    }\n\n    function endVotingSession() external onlyOwner {\n        require(workflowStatus == WorkflowStatus.VotingSessionStarted, \"Voting session have not started yet\");\n        workflowStatus = WorkflowStatus.VotingSessionEnded;\n        emit WorkflowStatusChange(WorkflowStatus.VotingSessionStarted, WorkflowStatus.VotingSessionEnded);\n    }\n\n    function tallyVotes() external onlyOwner {\n        require(workflowStatus == WorkflowStatus.VotingSessionEnded, \"Current status is not voting session ended\");\n        // Winning proposal id is already determined by setVote function\n        workflowStatus = WorkflowStatus.VotesTallied;\n        emit WorkflowStatusChange(WorkflowStatus.VotingSessionEnded, WorkflowStatus.VotesTallied);\n    }\n}",
  "sourcePath": "/home/jack/Dev/PROJEX/3_Alyra_Projet_dApp/truffle/contracts/Voting.sol",
  "compiler": {
    "name": "solc",
    "version": "0.8.13+commit.abaa5c0e.Emscripten.clang"
  },
  "schemaVersion": "3.4.7",
  "updatedAt": "2022-07-07T12:14:46.198Z",
  "networkType": "ethereum",
  "devdoc": {
    "kind": "dev",
    "methods": {
      "owner()": {
        "details": "Returns the address of the current owner."
      },
      "renounceOwnership()": {
        "details": "Leaves the contract without owner. It will not be possible to call `onlyOwner` functions anymore. Can only be called by the current owner. NOTE: Renouncing ownership will leave the contract without an owner, thereby removing any functionality that is only available to the owner."
      },
      "transferOwnership(address)": {
        "details": "Transfers ownership of the contract to a new account (`newOwner`). Can only be called by the current owner."
      }
    },
    "version": 1
  },
  "userdoc": {
    "kind": "user",
    "methods": {},
    "version": 1
  }
}